{
  "contracts/Ballot.sol": {
    "Ballot": {
      "abi": [
        {
          "inputs": [
            {
              "internalType": "string[]",
              "name": "candidateNames",
              "type": "string[]"
            }
          ],
          "stateMutability": "nonpayable",
          "type": "constructor"
        },
        {
          "inputs": [
            {
              "internalType": "string[]",
              "name": "candidateNames",
              "type": "string[]"
            }
          ],
          "name": "addCandidates",
          "outputs": [],
          "stateMutability": "nonpayable",
          "type": "function"
        },
        {
          "inputs": [
            {
              "internalType": "uint256",
              "name": "",
              "type": "uint256"
            }
          ],
          "name": "candidates",
          "outputs": [
            {
              "internalType": "string",
              "name": "name",
              "type": "string"
            },
            {
              "internalType": "uint256",
              "name": "voteCount",
              "type": "uint256"
            }
          ],
          "stateMutability": "view",
          "type": "function"
        },
        {
          "inputs": [],
          "name": "chairperson",
          "outputs": [
            {
              "internalType": "address",
              "name": "",
              "type": "address"
            }
          ],
          "stateMutability": "view",
          "type": "function"
        },
        {
          "inputs": [],
          "name": "endVote",
          "outputs": [],
          "stateMutability": "nonpayable",
          "type": "function"
        },
        {
          "inputs": [
            {
              "internalType": "address",
              "name": "voter",
              "type": "address"
            }
          ],
          "name": "giveRightToVote",
          "outputs": [],
          "stateMutability": "nonpayable",
          "type": "function"
        },
        {
          "inputs": [],
          "name": "startVote",
          "outputs": [],
          "stateMutability": "nonpayable",
          "type": "function"
        },
        {
          "inputs": [],
          "name": "state",
          "outputs": [
            {
              "internalType": "enum Ballot.State",
              "name": "",
              "type": "uint8"
            }
          ],
          "stateMutability": "view",
          "type": "function"
        },
        {
          "inputs": [
            {
              "internalType": "uint256",
              "name": "candidate",
              "type": "uint256"
            }
          ],
          "name": "vote",
          "outputs": [],
          "stateMutability": "nonpayable",
          "type": "function"
        },
        {
          "inputs": [
            {
              "internalType": "address",
              "name": "",
              "type": "address"
            }
          ],
          "name": "voters",
          "outputs": [
            {
              "internalType": "uint256",
              "name": "weight",
              "type": "uint256"
            },
            {
              "internalType": "bool",
              "name": "voted",
              "type": "bool"
            },
            {
              "internalType": "uint256",
              "name": "vote",
              "type": "uint256"
            }
          ],
          "stateMutability": "view",
          "type": "function"
        },
        {
          "inputs": [],
          "name": "winningCandidate",
          "outputs": [
            {
              "internalType": "string",
              "name": "winnerName_",
              "type": "string"
            }
          ],
          "stateMutability": "view",
          "type": "function"
        }
      ],
      "evm": {
        "bytecode": {
          "linkReferences": {},
          "object": "60806040523480156200001157600080fd5b5060405162001dbb38038062001dbb83398181016040528101906200003791906200050a565b336000806101000a81548173ffffffffffffffffffffffffffffffffffffffff021916908373ffffffffffffffffffffffffffffffffffffffff16021790555060018060008060009054906101000a900473ffffffffffffffffffffffffffffffffffffffff1673ffffffffffffffffffffffffffffffffffffffff1673ffffffffffffffffffffffffffffffffffffffff168152602001908152602001600020600001819055506000600360006101000a81548160ff021916908360028111156200010857620001076200055b565b5b021790555060005b8151811015620001b957600260405180604001604052808484815181106200013d576200013c6200058a565b5b6020026020010151815260200160008152509080600181540180825580915050600190039060005260206000209060020201600090919091909150600082015181600001908051906020019062000196929190620001c1565b506020820151816001015550508080620001b090620005f2565b91505062000110565b5050620006a5565b828054620001cf906200066f565b90600052602060002090601f016020900481019282620001f357600085556200023f565b82601f106200020e57805160ff19168380011785556200023f565b828001600101855582156200023f579182015b828111156200023e57825182559160200191906001019062000221565b5b5090506200024e919062000252565b5090565b5b808211156200026d57600081600090555060010162000253565b5090565b6000604051905090565b600080fd5b600080fd5b600080fd5b6000601f19601f8301169050919050565b7f4e487b7100000000000000000000000000000000000000000000000000000000600052604160045260246000fd5b620002d5826200028a565b810181811067ffffffffffffffff82111715620002f757620002f66200029b565b5b80604052505050565b60006200030c62000271565b90506200031a8282620002ca565b919050565b600067ffffffffffffffff8211156200033d576200033c6200029b565b5b602082029050602081019050919050565b600080fd5b600080fd5b600067ffffffffffffffff8211156200037657620003756200029b565b5b62000381826200028a565b9050602081019050919050565b60005b83811015620003ae57808201518184015260208101905062000391565b83811115620003be576000848401525b50505050565b6000620003db620003d58462000358565b62000300565b905082815260208101848484011115620003fa57620003f962000353565b5b620004078482856200038e565b509392505050565b600082601f83011262000427576200042662000285565b5b815162000439848260208601620003c4565b91505092915050565b60006200045962000453846200031f565b62000300565b905080838252602082019050602084028301858111156200047f576200047e6200034e565b5b835b81811015620004cd57805167ffffffffffffffff811115620004a857620004a762000285565b5b808601620004b789826200040f565b8552602085019450505060208101905062000481565b5050509392505050565b600082601f830112620004ef57620004ee62000285565b5b81516200050184826020860162000442565b91505092915050565b6000602082840312156200052357620005226200027b565b5b600082015167ffffffffffffffff81111562000544576200054362000280565b5b6200055284828501620004d7565b91505092915050565b7f4e487b7100000000000000000000000000000000000000000000000000000000600052602160045260246000fd5b7f4e487b7100000000000000000000000000000000000000000000000000000000600052603260045260246000fd5b7f4e487b7100000000000000000000000000000000000000000000000000000000600052601160045260246000fd5b6000819050919050565b6000620005ff82620005e8565b91507fffffffffffffffffffffffffffffffffffffffffffffffffffffffffffffffff821415620006355762000634620005b9565b5b600182019050919050565b7f4e487b7100000000000000000000000000000000000000000000000000000000600052602260045260246000fd5b600060028204905060018216806200068857607f821691505b602082108114156200069f576200069e62000640565b5b50919050565b61170680620006b56000396000f3fe608060405234801561001057600080fd5b506004361061009e5760003560e01c8063a3ec138d11610066578063a3ec138d14610134578063a999e56214610166578063b922394614610182578063c19d93fb1461018c578063d28178d7146101aa5761009e565b80630121b93f146100a35780632e4176cf146100bf5780633477ee2e146100dd5780634c0a6af01461010e5780639e7b8d6114610118575b600080fd5b6100bd60048036038101906100b89190610ca2565b6101c8565b005b6100c7610385565b6040516100d49190610d10565b60405180910390f35b6100f760048036038101906100f29190610ca2565b6103a9565b604051610105929190610dd3565b60405180910390f35b610116610465565b005b610132600480360381019061012d9190610e2f565b610596565b005b61014e60048036038101906101499190610e2f565b61074d565b60405161015d93929190610e77565b60405180910390f35b610180600480360381019061017b91906110c9565b610784565b005b61018a6108cb565b005b6101946109fc565b6040516101a19190611189565b60405180910390f35b6101b2610a0f565b6040516101bf91906111a4565b60405180910390f35b600160028111156101dc576101db611112565b5b600360009054906101000a900460ff1660028111156101fe576101fd611112565b5b1461023e576040517f08c379a000000000000000000000000000000000000000000000000000000000815260040161023590611212565b60405180910390fd5b6000600160003373ffffffffffffffffffffffffffffffffffffffff1673ffffffffffffffffffffffffffffffffffffffff16815260200190815260200160002090506000816000015414156102c9576040517f08c379a00000000000000000000000000000000000000000000000000000000081526004016102c09061127e565b60405180910390fd5b8060010160009054906101000a900460ff161561031b576040517f08c379a0000000000000000000000000000000000000000000000000000000008152600401610312906112ea565b60405180910390fd5b60018160010160006101000a81548160ff02191690831515021790555081816002018190555080600001546002838154811061035a5761035961130a565b5b9060005260206000209060020201600101600082825461037a9190611368565b925050819055505050565b60008054906101000a900473ffffffffffffffffffffffffffffffffffffffff1681565b600281815481106103b957600080fd5b90600052602060002090600202016000915090508060000180546103dc906113ed565b80601f0160208091040260200160405190810160405280929190818152602001828054610408906113ed565b80156104555780601f1061042a57610100808354040283529160200191610455565b820191906000526020600020905b81548152906001019060200180831161043857829003601f168201915b5050505050908060010154905082565b60008054906101000a900473ffffffffffffffffffffffffffffffffffffffff1673ffffffffffffffffffffffffffffffffffffffff163373ffffffffffffffffffffffffffffffffffffffff16146104f3576040517f08c379a00000000000000000000000000000000000000000000000000000000081526004016104ea90611491565b60405180910390fd5b6000600281111561050757610506611112565b5b600360009054906101000a900460ff16600281111561052957610528611112565b5b14610569576040517f08c379a0000000000000000000000000000000000000000000000000000000008152600401610560906114fd565b60405180910390fd5b6001600360006101000a81548160ff0219169083600281111561058f5761058e611112565b5b0217905550565b60008054906101000a900473ffffffffffffffffffffffffffffffffffffffff1673ffffffffffffffffffffffffffffffffffffffff163373ffffffffffffffffffffffffffffffffffffffff1614610624576040517f08c379a000000000000000000000000000000000000000000000000000000000815260040161061b9061158f565b60405180910390fd5b600160008273ffffffffffffffffffffffffffffffffffffffff1673ffffffffffffffffffffffffffffffffffffffff16815260200190815260200160002060010160009054906101000a900460ff16156106b4576040517f08c379a00000000000000000000000000000000000000000000000000000000081526004016106ab906115fb565b60405180910390fd5b6000600160008373ffffffffffffffffffffffffffffffffffffffff1673ffffffffffffffffffffffffffffffffffffffff168152602001908152602001600020600001541461070357600080fd5b60018060008373ffffffffffffffffffffffffffffffffffffffff1673ffffffffffffffffffffffffffffffffffffffff1681526020019081526020016000206000018190555050565b60016020528060005260406000206000915090508060000154908060010160009054906101000a900460ff16908060020154905083565b60028081111561079757610796611112565b5b600360009054906101000a900460ff1660028111156107b9576107b8611112565b5b146107f9576040517f08c379a00000000000000000000000000000000000000000000000000000000081526004016107f090611667565b60405180910390fd5b6000600360006101000a81548160ff0219169083600281111561081f5761081e611112565b5b021790555060005b81518110156108c757600260405180604001604052808484815181106108505761084f61130a565b5b602002602001015181526020016000815250908060018154018082558091505060019003906000526020600020906002020160009091909190915060008201518160000190805190602001906108a7929190610bb5565b5060208201518160010155505080806108bf90611687565b915050610827565b5050565b60008054906101000a900473ffffffffffffffffffffffffffffffffffffffff1673ffffffffffffffffffffffffffffffffffffffff163373ffffffffffffffffffffffffffffffffffffffff1614610959576040517f08c379a000000000000000000000000000000000000000000000000000000000815260040161095090611491565b60405180910390fd5b6001600281111561096d5761096c611112565b5b600360009054906101000a900460ff16600281111561098f5761098e611112565b5b146109cf576040517f08c379a00000000000000000000000000000000000000000000000000000000081526004016109c690611212565b60405180910390fd5b6002600360006101000a81548160ff021916908360028111156109f5576109f4611112565b5b0217905550565b600360009054906101000a900460ff1681565b6060600280811115610a2457610a23611112565b5b600360009054906101000a900460ff166002811115610a4657610a45611112565b5b14610a86576040517f08c379a0000000000000000000000000000000000000000000000000000000008152600401610a7d90611667565b60405180910390fd5b6000805b600280549050811015610bb0578160028281548110610aac57610aab61130a565b5b9060005260206000209060020201600101541115610b9d5760028181548110610ad857610ad761130a565b5b906000526020600020906002020160010154915060028181548110610b0057610aff61130a565b5b90600052602060002090600202016000018054610b1c906113ed565b80601f0160208091040260200160405190810160405280929190818152602001828054610b48906113ed565b8015610b955780601f10610b6a57610100808354040283529160200191610b95565b820191906000526020600020905b815481529060010190602001808311610b7857829003601f168201915b505050505092505b8080610ba890611687565b915050610a8a565b505090565b828054610bc1906113ed565b90600052602060002090601f016020900481019282610be35760008555610c2a565b82601f10610bfc57805160ff1916838001178555610c2a565b82800160010185558215610c2a579182015b82811115610c29578251825591602001919060010190610c0e565b5b509050610c379190610c3b565b5090565b5b80821115610c54576000816000905550600101610c3c565b5090565b6000604051905090565b600080fd5b600080fd5b6000819050919050565b610c7f81610c6c565b8114610c8a57600080fd5b50565b600081359050610c9c81610c76565b92915050565b600060208284031215610cb857610cb7610c62565b5b6000610cc684828501610c8d565b91505092915050565b600073ffffffffffffffffffffffffffffffffffffffff82169050919050565b6000610cfa82610ccf565b9050919050565b610d0a81610cef565b82525050565b6000602082019050610d256000830184610d01565b92915050565b600081519050919050565b600082825260208201905092915050565b60005b83811015610d65578082015181840152602081019050610d4a565b83811115610d74576000848401525b50505050565b6000601f19601f8301169050919050565b6000610d9682610d2b565b610da08185610d36565b9350610db0818560208601610d47565b610db981610d7a565b840191505092915050565b610dcd81610c6c565b82525050565b60006040820190508181036000830152610ded8185610d8b565b9050610dfc6020830184610dc4565b9392505050565b610e0c81610cef565b8114610e1757600080fd5b50565b600081359050610e2981610e03565b92915050565b600060208284031215610e4557610e44610c62565b5b6000610e5384828501610e1a565b91505092915050565b60008115159050919050565b610e7181610e5c565b82525050565b6000606082019050610e8c6000830186610dc4565b610e996020830185610e68565b610ea66040830184610dc4565b949350505050565b600080fd5b7f4e487b7100000000000000000000000000000000000000000000000000000000600052604160045260246000fd5b610eeb82610d7a565b810181811067ffffffffffffffff82111715610f0a57610f09610eb3565b5b80604052505050565b6000610f1d610c58565b9050610f298282610ee2565b919050565b600067ffffffffffffffff821115610f4957610f48610eb3565b5b602082029050602081019050919050565b600080fd5b600080fd5b600067ffffffffffffffff821115610f7f57610f7e610eb3565b5b610f8882610d7a565b9050602081019050919050565b82818337600083830152505050565b6000610fb7610fb284610f64565b610f13565b905082815260208101848484011115610fd357610fd2610f5f565b5b610fde848285610f95565b509392505050565b600082601f830112610ffb57610ffa610eae565b5b813561100b848260208601610fa4565b91505092915050565b600061102761102284610f2e565b610f13565b9050808382526020820190506020840283018581111561104a57611049610f5a565b5b835b8181101561109157803567ffffffffffffffff81111561106f5761106e610eae565b5b80860161107c8982610fe6565b8552602085019450505060208101905061104c565b5050509392505050565b600082601f8301126110b0576110af610eae565b5b81356110c0848260208601611014565b91505092915050565b6000602082840312156110df576110de610c62565b5b600082013567ffffffffffffffff8111156110fd576110fc610c67565b5b6111098482850161109b565b91505092915050565b7f4e487b7100000000000000000000000000000000000000000000000000000000600052602160045260246000fd5b6003811061115257611151611112565b5b50565b600081905061116382611141565b919050565b600061117382611155565b9050919050565b61118381611168565b82525050565b600060208201905061119e600083018461117a565b92915050565b600060208201905081810360008301526111be8184610d8b565b905092915050565b7f6974206d75737420626520696e20566f74696e6720506572696f640000000000600082015250565b60006111fc601b83610d36565b9150611207826111c6565b602082019050919050565b6000602082019050818103600083015261122b816111ef565b9050919050565b7f486173206e6f20726967687420746f20766f7465000000000000000000000000600082015250565b6000611268601483610d36565b915061127382611232565b602082019050919050565b600060208201905081810360008301526112978161125b565b9050919050565b7f416c726561647920766f7465642e000000000000000000000000000000000000600082015250565b60006112d4600e83610d36565b91506112df8261129e565b602082019050919050565b60006020820190508181036000830152611303816112c7565b9050919050565b7f4e487b7100000000000000000000000000000000000000000000000000000000600052603260045260246000fd5b7f4e487b7100000000000000000000000000000000000000000000000000000000600052601160045260246000fd5b600061137382610c6c565b915061137e83610c6c565b9250827fffffffffffffffffffffffffffffffffffffffffffffffffffffffffffffffff038211156113b3576113b2611339565b5b828201905092915050565b7f4e487b7100000000000000000000000000000000000000000000000000000000600052602260045260246000fd5b6000600282049050600182168061140557607f821691505b60208210811415611419576114186113be565b5b50919050565b7f4f6e6c79206368616972706572736f6e2063616e20737461727420616e64206560008201527f6e642074686520766f74696e6700000000000000000000000000000000000000602082015250565b600061147b602d83610d36565b91506114868261141f565b604082019050919050565b600060208201905081810360008301526114aa8161146e565b9050919050565b7f6974206d75737420626520696e20537461727465640000000000000000000000600082015250565b60006114e7601583610d36565b91506114f2826114b1565b602082019050919050565b60006020820190508181036000830152611516816114da565b9050919050565b7f4f6e6c79206368616972706572736f6e2063616e20676976652072696768742060008201527f746f20766f74652e000000000000000000000000000000000000000000000000602082015250565b6000611579602883610d36565b91506115848261151d565b604082019050919050565b600060208201905081810360008301526115a88161156c565b9050919050565b7f54686520766f74657220616c726561647920766f7465642e0000000000000000600082015250565b60006115e5601883610d36565b91506115f0826115af565b602082019050919050565b60006020820190508181036000830152611614816115d8565b9050919050565b7f6974206d75737420626520696e20456e64656420506572696f64000000000000600082015250565b6000611651601a83610d36565b915061165c8261161b565b602082019050919050565b6000602082019050818103600083015261168081611644565b9050919050565b600061169282610c6c565b91507fffffffffffffffffffffffffffffffffffffffffffffffffffffffffffffffff8214156116c5576116c4611339565b5b60018201905091905056fea264697066735822122033fb7038e003666252ae177578eea3e287bf72c3ba529b80b9c96fc18a3dd5cc64736f6c63430008090033",
          "opcodes": "PUSH1 0x80 PUSH1 0x40 MSTORE CALLVALUE DUP1 ISZERO PUSH3 0x11 JUMPI PUSH1 0x0 DUP1 REVERT JUMPDEST POP PUSH1 0x40 MLOAD PUSH3 0x1DBB CODESIZE SUB DUP1 PUSH3 0x1DBB DUP4 CODECOPY DUP2 DUP2 ADD PUSH1 0x40 MSTORE DUP2 ADD SWAP1 PUSH3 0x37 SWAP2 SWAP1 PUSH3 0x50A JUMP JUMPDEST CALLER PUSH1 0x0 DUP1 PUSH2 0x100 EXP DUP2 SLOAD DUP2 PUSH20 0xFFFFFFFFFFFFFFFFFFFFFFFFFFFFFFFFFFFFFFFF MUL NOT AND SWAP1 DUP4 PUSH20 0xFFFFFFFFFFFFFFFFFFFFFFFFFFFFFFFFFFFFFFFF AND MUL OR SWAP1 SSTORE POP PUSH1 0x1 DUP1 PUSH1 0x0 DUP1 PUSH1 0x0 SWAP1 SLOAD SWAP1 PUSH2 0x100 EXP SWAP1 DIV PUSH20 0xFFFFFFFFFFFFFFFFFFFFFFFFFFFFFFFFFFFFFFFF AND PUSH20 0xFFFFFFFFFFFFFFFFFFFFFFFFFFFFFFFFFFFFFFFF AND PUSH20 0xFFFFFFFFFFFFFFFFFFFFFFFFFFFFFFFFFFFFFFFF AND DUP2 MSTORE PUSH1 0x20 ADD SWAP1 DUP2 MSTORE PUSH1 0x20 ADD PUSH1 0x0 KECCAK256 PUSH1 0x0 ADD DUP2 SWAP1 SSTORE POP PUSH1 0x0 PUSH1 0x3 PUSH1 0x0 PUSH2 0x100 EXP DUP2 SLOAD DUP2 PUSH1 0xFF MUL NOT AND SWAP1 DUP4 PUSH1 0x2 DUP2 GT ISZERO PUSH3 0x108 JUMPI PUSH3 0x107 PUSH3 0x55B JUMP JUMPDEST JUMPDEST MUL OR SWAP1 SSTORE POP PUSH1 0x0 JUMPDEST DUP2 MLOAD DUP2 LT ISZERO PUSH3 0x1B9 JUMPI PUSH1 0x2 PUSH1 0x40 MLOAD DUP1 PUSH1 0x40 ADD PUSH1 0x40 MSTORE DUP1 DUP5 DUP5 DUP2 MLOAD DUP2 LT PUSH3 0x13D JUMPI PUSH3 0x13C PUSH3 0x58A JUMP JUMPDEST JUMPDEST PUSH1 0x20 MUL PUSH1 0x20 ADD ADD MLOAD DUP2 MSTORE PUSH1 0x20 ADD PUSH1 0x0 DUP2 MSTORE POP SWAP1 DUP1 PUSH1 0x1 DUP2 SLOAD ADD DUP1 DUP3 SSTORE DUP1 SWAP2 POP POP PUSH1 0x1 SWAP1 SUB SWAP1 PUSH1 0x0 MSTORE PUSH1 0x20 PUSH1 0x0 KECCAK256 SWAP1 PUSH1 0x2 MUL ADD PUSH1 0x0 SWAP1 SWAP2 SWAP1 SWAP2 SWAP1 SWAP2 POP PUSH1 0x0 DUP3 ADD MLOAD DUP2 PUSH1 0x0 ADD SWAP1 DUP1 MLOAD SWAP1 PUSH1 0x20 ADD SWAP1 PUSH3 0x196 SWAP3 SWAP2 SWAP1 PUSH3 0x1C1 JUMP JUMPDEST POP PUSH1 0x20 DUP3 ADD MLOAD DUP2 PUSH1 0x1 ADD SSTORE POP POP DUP1 DUP1 PUSH3 0x1B0 SWAP1 PUSH3 0x5F2 JUMP JUMPDEST SWAP2 POP POP PUSH3 0x110 JUMP JUMPDEST POP POP PUSH3 0x6A5 JUMP JUMPDEST DUP3 DUP1 SLOAD PUSH3 0x1CF SWAP1 PUSH3 0x66F JUMP JUMPDEST SWAP1 PUSH1 0x0 MSTORE PUSH1 0x20 PUSH1 0x0 KECCAK256 SWAP1 PUSH1 0x1F ADD PUSH1 0x20 SWAP1 DIV DUP2 ADD SWAP3 DUP3 PUSH3 0x1F3 JUMPI PUSH1 0x0 DUP6 SSTORE PUSH3 0x23F JUMP JUMPDEST DUP3 PUSH1 0x1F LT PUSH3 0x20E JUMPI DUP1 MLOAD PUSH1 0xFF NOT AND DUP4 DUP1 ADD OR DUP6 SSTORE PUSH3 0x23F JUMP JUMPDEST DUP3 DUP1 ADD PUSH1 0x1 ADD DUP6 SSTORE DUP3 ISZERO PUSH3 0x23F JUMPI SWAP2 DUP3 ADD JUMPDEST DUP3 DUP2 GT ISZERO PUSH3 0x23E JUMPI DUP3 MLOAD DUP3 SSTORE SWAP2 PUSH1 0x20 ADD SWAP2 SWAP1 PUSH1 0x1 ADD SWAP1 PUSH3 0x221 JUMP JUMPDEST JUMPDEST POP SWAP1 POP PUSH3 0x24E SWAP2 SWAP1 PUSH3 0x252 JUMP JUMPDEST POP SWAP1 JUMP JUMPDEST JUMPDEST DUP1 DUP3 GT ISZERO PUSH3 0x26D JUMPI PUSH1 0x0 DUP2 PUSH1 0x0 SWAP1 SSTORE POP PUSH1 0x1 ADD PUSH3 0x253 JUMP JUMPDEST POP SWAP1 JUMP JUMPDEST PUSH1 0x0 PUSH1 0x40 MLOAD SWAP1 POP SWAP1 JUMP JUMPDEST PUSH1 0x0 DUP1 REVERT JUMPDEST PUSH1 0x0 DUP1 REVERT JUMPDEST PUSH1 0x0 DUP1 REVERT JUMPDEST PUSH1 0x0 PUSH1 0x1F NOT PUSH1 0x1F DUP4 ADD AND SWAP1 POP SWAP2 SWAP1 POP JUMP JUMPDEST PUSH32 0x4E487B7100000000000000000000000000000000000000000000000000000000 PUSH1 0x0 MSTORE PUSH1 0x41 PUSH1 0x4 MSTORE PUSH1 0x24 PUSH1 0x0 REVERT JUMPDEST PUSH3 0x2D5 DUP3 PUSH3 0x28A JUMP JUMPDEST DUP2 ADD DUP2 DUP2 LT PUSH8 0xFFFFFFFFFFFFFFFF DUP3 GT OR ISZERO PUSH3 0x2F7 JUMPI PUSH3 0x2F6 PUSH3 0x29B JUMP JUMPDEST JUMPDEST DUP1 PUSH1 0x40 MSTORE POP POP POP JUMP JUMPDEST PUSH1 0x0 PUSH3 0x30C PUSH3 0x271 JUMP JUMPDEST SWAP1 POP PUSH3 0x31A DUP3 DUP3 PUSH3 0x2CA JUMP JUMPDEST SWAP2 SWAP1 POP JUMP JUMPDEST PUSH1 0x0 PUSH8 0xFFFFFFFFFFFFFFFF DUP3 GT ISZERO PUSH3 0x33D JUMPI PUSH3 0x33C PUSH3 0x29B JUMP JUMPDEST JUMPDEST PUSH1 0x20 DUP3 MUL SWAP1 POP PUSH1 0x20 DUP2 ADD SWAP1 POP SWAP2 SWAP1 POP JUMP JUMPDEST PUSH1 0x0 DUP1 REVERT JUMPDEST PUSH1 0x0 DUP1 REVERT JUMPDEST PUSH1 0x0 PUSH8 0xFFFFFFFFFFFFFFFF DUP3 GT ISZERO PUSH3 0x376 JUMPI PUSH3 0x375 PUSH3 0x29B JUMP JUMPDEST JUMPDEST PUSH3 0x381 DUP3 PUSH3 0x28A JUMP JUMPDEST SWAP1 POP PUSH1 0x20 DUP2 ADD SWAP1 POP SWAP2 SWAP1 POP JUMP JUMPDEST PUSH1 0x0 JUMPDEST DUP4 DUP2 LT ISZERO PUSH3 0x3AE JUMPI DUP1 DUP3 ADD MLOAD DUP2 DUP5 ADD MSTORE PUSH1 0x20 DUP2 ADD SWAP1 POP PUSH3 0x391 JUMP JUMPDEST DUP4 DUP2 GT ISZERO PUSH3 0x3BE JUMPI PUSH1 0x0 DUP5 DUP5 ADD MSTORE JUMPDEST POP POP POP POP JUMP JUMPDEST PUSH1 0x0 PUSH3 0x3DB PUSH3 0x3D5 DUP5 PUSH3 0x358 JUMP JUMPDEST PUSH3 0x300 JUMP JUMPDEST SWAP1 POP DUP3 DUP2 MSTORE PUSH1 0x20 DUP2 ADD DUP5 DUP5 DUP5 ADD GT ISZERO PUSH3 0x3FA JUMPI PUSH3 0x3F9 PUSH3 0x353 JUMP JUMPDEST JUMPDEST PUSH3 0x407 DUP5 DUP3 DUP6 PUSH3 0x38E JUMP JUMPDEST POP SWAP4 SWAP3 POP POP POP JUMP JUMPDEST PUSH1 0x0 DUP3 PUSH1 0x1F DUP4 ADD SLT PUSH3 0x427 JUMPI PUSH3 0x426 PUSH3 0x285 JUMP JUMPDEST JUMPDEST DUP2 MLOAD PUSH3 0x439 DUP5 DUP3 PUSH1 0x20 DUP7 ADD PUSH3 0x3C4 JUMP JUMPDEST SWAP2 POP POP SWAP3 SWAP2 POP POP JUMP JUMPDEST PUSH1 0x0 PUSH3 0x459 PUSH3 0x453 DUP5 PUSH3 0x31F JUMP JUMPDEST PUSH3 0x300 JUMP JUMPDEST SWAP1 POP DUP1 DUP4 DUP3 MSTORE PUSH1 0x20 DUP3 ADD SWAP1 POP PUSH1 0x20 DUP5 MUL DUP4 ADD DUP6 DUP2 GT ISZERO PUSH3 0x47F JUMPI PUSH3 0x47E PUSH3 0x34E JUMP JUMPDEST JUMPDEST DUP4 JUMPDEST DUP2 DUP2 LT ISZERO PUSH3 0x4CD JUMPI DUP1 MLOAD PUSH8 0xFFFFFFFFFFFFFFFF DUP2 GT ISZERO PUSH3 0x4A8 JUMPI PUSH3 0x4A7 PUSH3 0x285 JUMP JUMPDEST JUMPDEST DUP1 DUP7 ADD PUSH3 0x4B7 DUP10 DUP3 PUSH3 0x40F JUMP JUMPDEST DUP6 MSTORE PUSH1 0x20 DUP6 ADD SWAP5 POP POP POP PUSH1 0x20 DUP2 ADD SWAP1 POP PUSH3 0x481 JUMP JUMPDEST POP POP POP SWAP4 SWAP3 POP POP POP JUMP JUMPDEST PUSH1 0x0 DUP3 PUSH1 0x1F DUP4 ADD SLT PUSH3 0x4EF JUMPI PUSH3 0x4EE PUSH3 0x285 JUMP JUMPDEST JUMPDEST DUP2 MLOAD PUSH3 0x501 DUP5 DUP3 PUSH1 0x20 DUP7 ADD PUSH3 0x442 JUMP JUMPDEST SWAP2 POP POP SWAP3 SWAP2 POP POP JUMP JUMPDEST PUSH1 0x0 PUSH1 0x20 DUP3 DUP5 SUB SLT ISZERO PUSH3 0x523 JUMPI PUSH3 0x522 PUSH3 0x27B JUMP JUMPDEST JUMPDEST PUSH1 0x0 DUP3 ADD MLOAD PUSH8 0xFFFFFFFFFFFFFFFF DUP2 GT ISZERO PUSH3 0x544 JUMPI PUSH3 0x543 PUSH3 0x280 JUMP JUMPDEST JUMPDEST PUSH3 0x552 DUP5 DUP3 DUP6 ADD PUSH3 0x4D7 JUMP JUMPDEST SWAP2 POP POP SWAP3 SWAP2 POP POP JUMP JUMPDEST PUSH32 0x4E487B7100000000000000000000000000000000000000000000000000000000 PUSH1 0x0 MSTORE PUSH1 0x21 PUSH1 0x4 MSTORE PUSH1 0x24 PUSH1 0x0 REVERT JUMPDEST PUSH32 0x4E487B7100000000000000000000000000000000000000000000000000000000 PUSH1 0x0 MSTORE PUSH1 0x32 PUSH1 0x4 MSTORE PUSH1 0x24 PUSH1 0x0 REVERT JUMPDEST PUSH32 0x4E487B7100000000000000000000000000000000000000000000000000000000 PUSH1 0x0 MSTORE PUSH1 0x11 PUSH1 0x4 MSTORE PUSH1 0x24 PUSH1 0x0 REVERT JUMPDEST PUSH1 0x0 DUP2 SWAP1 POP SWAP2 SWAP1 POP JUMP JUMPDEST PUSH1 0x0 PUSH3 0x5FF DUP3 PUSH3 0x5E8 JUMP JUMPDEST SWAP2 POP PUSH32 0xFFFFFFFFFFFFFFFFFFFFFFFFFFFFFFFFFFFFFFFFFFFFFFFFFFFFFFFFFFFFFFFF DUP3 EQ ISZERO PUSH3 0x635 JUMPI PUSH3 0x634 PUSH3 0x5B9 JUMP JUMPDEST JUMPDEST PUSH1 0x1 DUP3 ADD SWAP1 POP SWAP2 SWAP1 POP JUMP JUMPDEST PUSH32 0x4E487B7100000000000000000000000000000000000000000000000000000000 PUSH1 0x0 MSTORE PUSH1 0x22 PUSH1 0x4 MSTORE PUSH1 0x24 PUSH1 0x0 REVERT JUMPDEST PUSH1 0x0 PUSH1 0x2 DUP3 DIV SWAP1 POP PUSH1 0x1 DUP3 AND DUP1 PUSH3 0x688 JUMPI PUSH1 0x7F DUP3 AND SWAP2 POP JUMPDEST PUSH1 0x20 DUP3 LT DUP2 EQ ISZERO PUSH3 0x69F JUMPI PUSH3 0x69E PUSH3 0x640 JUMP JUMPDEST JUMPDEST POP SWAP2 SWAP1 POP JUMP JUMPDEST PUSH2 0x1706 DUP1 PUSH3 0x6B5 PUSH1 0x0 CODECOPY PUSH1 0x0 RETURN INVALID PUSH1 0x80 PUSH1 0x40 MSTORE CALLVALUE DUP1 ISZERO PUSH2 0x10 JUMPI PUSH1 0x0 DUP1 REVERT JUMPDEST POP PUSH1 0x4 CALLDATASIZE LT PUSH2 0x9E JUMPI PUSH1 0x0 CALLDATALOAD PUSH1 0xE0 SHR DUP1 PUSH4 0xA3EC138D GT PUSH2 0x66 JUMPI DUP1 PUSH4 0xA3EC138D EQ PUSH2 0x134 JUMPI DUP1 PUSH4 0xA999E562 EQ PUSH2 0x166 JUMPI DUP1 PUSH4 0xB9223946 EQ PUSH2 0x182 JUMPI DUP1 PUSH4 0xC19D93FB EQ PUSH2 0x18C JUMPI DUP1 PUSH4 0xD28178D7 EQ PUSH2 0x1AA JUMPI PUSH2 0x9E JUMP JUMPDEST DUP1 PUSH4 0x121B93F EQ PUSH2 0xA3 JUMPI DUP1 PUSH4 0x2E4176CF EQ PUSH2 0xBF JUMPI DUP1 PUSH4 0x3477EE2E EQ PUSH2 0xDD JUMPI DUP1 PUSH4 0x4C0A6AF0 EQ PUSH2 0x10E JUMPI DUP1 PUSH4 0x9E7B8D61 EQ PUSH2 0x118 JUMPI JUMPDEST PUSH1 0x0 DUP1 REVERT JUMPDEST PUSH2 0xBD PUSH1 0x4 DUP1 CALLDATASIZE SUB DUP2 ADD SWAP1 PUSH2 0xB8 SWAP2 SWAP1 PUSH2 0xCA2 JUMP JUMPDEST PUSH2 0x1C8 JUMP JUMPDEST STOP JUMPDEST PUSH2 0xC7 PUSH2 0x385 JUMP JUMPDEST PUSH1 0x40 MLOAD PUSH2 0xD4 SWAP2 SWAP1 PUSH2 0xD10 JUMP JUMPDEST PUSH1 0x40 MLOAD DUP1 SWAP2 SUB SWAP1 RETURN JUMPDEST PUSH2 0xF7 PUSH1 0x4 DUP1 CALLDATASIZE SUB DUP2 ADD SWAP1 PUSH2 0xF2 SWAP2 SWAP1 PUSH2 0xCA2 JUMP JUMPDEST PUSH2 0x3A9 JUMP JUMPDEST PUSH1 0x40 MLOAD PUSH2 0x105 SWAP3 SWAP2 SWAP1 PUSH2 0xDD3 JUMP JUMPDEST PUSH1 0x40 MLOAD DUP1 SWAP2 SUB SWAP1 RETURN JUMPDEST PUSH2 0x116 PUSH2 0x465 JUMP JUMPDEST STOP JUMPDEST PUSH2 0x132 PUSH1 0x4 DUP1 CALLDATASIZE SUB DUP2 ADD SWAP1 PUSH2 0x12D SWAP2 SWAP1 PUSH2 0xE2F JUMP JUMPDEST PUSH2 0x596 JUMP JUMPDEST STOP JUMPDEST PUSH2 0x14E PUSH1 0x4 DUP1 CALLDATASIZE SUB DUP2 ADD SWAP1 PUSH2 0x149 SWAP2 SWAP1 PUSH2 0xE2F JUMP JUMPDEST PUSH2 0x74D JUMP JUMPDEST PUSH1 0x40 MLOAD PUSH2 0x15D SWAP4 SWAP3 SWAP2 SWAP1 PUSH2 0xE77 JUMP JUMPDEST PUSH1 0x40 MLOAD DUP1 SWAP2 SUB SWAP1 RETURN JUMPDEST PUSH2 0x180 PUSH1 0x4 DUP1 CALLDATASIZE SUB DUP2 ADD SWAP1 PUSH2 0x17B SWAP2 SWAP1 PUSH2 0x10C9 JUMP JUMPDEST PUSH2 0x784 JUMP JUMPDEST STOP JUMPDEST PUSH2 0x18A PUSH2 0x8CB JUMP JUMPDEST STOP JUMPDEST PUSH2 0x194 PUSH2 0x9FC JUMP JUMPDEST PUSH1 0x40 MLOAD PUSH2 0x1A1 SWAP2 SWAP1 PUSH2 0x1189 JUMP JUMPDEST PUSH1 0x40 MLOAD DUP1 SWAP2 SUB SWAP1 RETURN JUMPDEST PUSH2 0x1B2 PUSH2 0xA0F JUMP JUMPDEST PUSH1 0x40 MLOAD PUSH2 0x1BF SWAP2 SWAP1 PUSH2 0x11A4 JUMP JUMPDEST PUSH1 0x40 MLOAD DUP1 SWAP2 SUB SWAP1 RETURN JUMPDEST PUSH1 0x1 PUSH1 0x2 DUP2 GT ISZERO PUSH2 0x1DC JUMPI PUSH2 0x1DB PUSH2 0x1112 JUMP JUMPDEST JUMPDEST PUSH1 0x3 PUSH1 0x0 SWAP1 SLOAD SWAP1 PUSH2 0x100 EXP SWAP1 DIV PUSH1 0xFF AND PUSH1 0x2 DUP2 GT ISZERO PUSH2 0x1FE JUMPI PUSH2 0x1FD PUSH2 0x1112 JUMP JUMPDEST JUMPDEST EQ PUSH2 0x23E JUMPI PUSH1 0x40 MLOAD PUSH32 0x8C379A000000000000000000000000000000000000000000000000000000000 DUP2 MSTORE PUSH1 0x4 ADD PUSH2 0x235 SWAP1 PUSH2 0x1212 JUMP JUMPDEST PUSH1 0x40 MLOAD DUP1 SWAP2 SUB SWAP1 REVERT JUMPDEST PUSH1 0x0 PUSH1 0x1 PUSH1 0x0 CALLER PUSH20 0xFFFFFFFFFFFFFFFFFFFFFFFFFFFFFFFFFFFFFFFF AND PUSH20 0xFFFFFFFFFFFFFFFFFFFFFFFFFFFFFFFFFFFFFFFF AND DUP2 MSTORE PUSH1 0x20 ADD SWAP1 DUP2 MSTORE PUSH1 0x20 ADD PUSH1 0x0 KECCAK256 SWAP1 POP PUSH1 0x0 DUP2 PUSH1 0x0 ADD SLOAD EQ ISZERO PUSH2 0x2C9 JUMPI PUSH1 0x40 MLOAD PUSH32 0x8C379A000000000000000000000000000000000000000000000000000000000 DUP2 MSTORE PUSH1 0x4 ADD PUSH2 0x2C0 SWAP1 PUSH2 0x127E JUMP JUMPDEST PUSH1 0x40 MLOAD DUP1 SWAP2 SUB SWAP1 REVERT JUMPDEST DUP1 PUSH1 0x1 ADD PUSH1 0x0 SWAP1 SLOAD SWAP1 PUSH2 0x100 EXP SWAP1 DIV PUSH1 0xFF AND ISZERO PUSH2 0x31B JUMPI PUSH1 0x40 MLOAD PUSH32 0x8C379A000000000000000000000000000000000000000000000000000000000 DUP2 MSTORE PUSH1 0x4 ADD PUSH2 0x312 SWAP1 PUSH2 0x12EA JUMP JUMPDEST PUSH1 0x40 MLOAD DUP1 SWAP2 SUB SWAP1 REVERT JUMPDEST PUSH1 0x1 DUP2 PUSH1 0x1 ADD PUSH1 0x0 PUSH2 0x100 EXP DUP2 SLOAD DUP2 PUSH1 0xFF MUL NOT AND SWAP1 DUP4 ISZERO ISZERO MUL OR SWAP1 SSTORE POP DUP2 DUP2 PUSH1 0x2 ADD DUP2 SWAP1 SSTORE POP DUP1 PUSH1 0x0 ADD SLOAD PUSH1 0x2 DUP4 DUP2 SLOAD DUP2 LT PUSH2 0x35A JUMPI PUSH2 0x359 PUSH2 0x130A JUMP JUMPDEST JUMPDEST SWAP1 PUSH1 0x0 MSTORE PUSH1 0x20 PUSH1 0x0 KECCAK256 SWAP1 PUSH1 0x2 MUL ADD PUSH1 0x1 ADD PUSH1 0x0 DUP3 DUP3 SLOAD PUSH2 0x37A SWAP2 SWAP1 PUSH2 0x1368 JUMP JUMPDEST SWAP3 POP POP DUP2 SWAP1 SSTORE POP POP POP JUMP JUMPDEST PUSH1 0x0 DUP1 SLOAD SWAP1 PUSH2 0x100 EXP SWAP1 DIV PUSH20 0xFFFFFFFFFFFFFFFFFFFFFFFFFFFFFFFFFFFFFFFF AND DUP2 JUMP JUMPDEST PUSH1 0x2 DUP2 DUP2 SLOAD DUP2 LT PUSH2 0x3B9 JUMPI PUSH1 0x0 DUP1 REVERT JUMPDEST SWAP1 PUSH1 0x0 MSTORE PUSH1 0x20 PUSH1 0x0 KECCAK256 SWAP1 PUSH1 0x2 MUL ADD PUSH1 0x0 SWAP2 POP SWAP1 POP DUP1 PUSH1 0x0 ADD DUP1 SLOAD PUSH2 0x3DC SWAP1 PUSH2 0x13ED JUMP JUMPDEST DUP1 PUSH1 0x1F ADD PUSH1 0x20 DUP1 SWAP2 DIV MUL PUSH1 0x20 ADD PUSH1 0x40 MLOAD SWAP1 DUP2 ADD PUSH1 0x40 MSTORE DUP1 SWAP3 SWAP2 SWAP1 DUP2 DUP2 MSTORE PUSH1 0x20 ADD DUP3 DUP1 SLOAD PUSH2 0x408 SWAP1 PUSH2 0x13ED JUMP JUMPDEST DUP1 ISZERO PUSH2 0x455 JUMPI DUP1 PUSH1 0x1F LT PUSH2 0x42A JUMPI PUSH2 0x100 DUP1 DUP4 SLOAD DIV MUL DUP4 MSTORE SWAP2 PUSH1 0x20 ADD SWAP2 PUSH2 0x455 JUMP JUMPDEST DUP3 ADD SWAP2 SWAP1 PUSH1 0x0 MSTORE PUSH1 0x20 PUSH1 0x0 KECCAK256 SWAP1 JUMPDEST DUP2 SLOAD DUP2 MSTORE SWAP1 PUSH1 0x1 ADD SWAP1 PUSH1 0x20 ADD DUP1 DUP4 GT PUSH2 0x438 JUMPI DUP3 SWAP1 SUB PUSH1 0x1F AND DUP3 ADD SWAP2 JUMPDEST POP POP POP POP POP SWAP1 DUP1 PUSH1 0x1 ADD SLOAD SWAP1 POP DUP3 JUMP JUMPDEST PUSH1 0x0 DUP1 SLOAD SWAP1 PUSH2 0x100 EXP SWAP1 DIV PUSH20 0xFFFFFFFFFFFFFFFFFFFFFFFFFFFFFFFFFFFFFFFF AND PUSH20 0xFFFFFFFFFFFFFFFFFFFFFFFFFFFFFFFFFFFFFFFF AND CALLER PUSH20 0xFFFFFFFFFFFFFFFFFFFFFFFFFFFFFFFFFFFFFFFF AND EQ PUSH2 0x4F3 JUMPI PUSH1 0x40 MLOAD PUSH32 0x8C379A000000000000000000000000000000000000000000000000000000000 DUP2 MSTORE PUSH1 0x4 ADD PUSH2 0x4EA SWAP1 PUSH2 0x1491 JUMP JUMPDEST PUSH1 0x40 MLOAD DUP1 SWAP2 SUB SWAP1 REVERT JUMPDEST PUSH1 0x0 PUSH1 0x2 DUP2 GT ISZERO PUSH2 0x507 JUMPI PUSH2 0x506 PUSH2 0x1112 JUMP JUMPDEST JUMPDEST PUSH1 0x3 PUSH1 0x0 SWAP1 SLOAD SWAP1 PUSH2 0x100 EXP SWAP1 DIV PUSH1 0xFF AND PUSH1 0x2 DUP2 GT ISZERO PUSH2 0x529 JUMPI PUSH2 0x528 PUSH2 0x1112 JUMP JUMPDEST JUMPDEST EQ PUSH2 0x569 JUMPI PUSH1 0x40 MLOAD PUSH32 0x8C379A000000000000000000000000000000000000000000000000000000000 DUP2 MSTORE PUSH1 0x4 ADD PUSH2 0x560 SWAP1 PUSH2 0x14FD JUMP JUMPDEST PUSH1 0x40 MLOAD DUP1 SWAP2 SUB SWAP1 REVERT JUMPDEST PUSH1 0x1 PUSH1 0x3 PUSH1 0x0 PUSH2 0x100 EXP DUP2 SLOAD DUP2 PUSH1 0xFF MUL NOT AND SWAP1 DUP4 PUSH1 0x2 DUP2 GT ISZERO PUSH2 0x58F JUMPI PUSH2 0x58E PUSH2 0x1112 JUMP JUMPDEST JUMPDEST MUL OR SWAP1 SSTORE POP JUMP JUMPDEST PUSH1 0x0 DUP1 SLOAD SWAP1 PUSH2 0x100 EXP SWAP1 DIV PUSH20 0xFFFFFFFFFFFFFFFFFFFFFFFFFFFFFFFFFFFFFFFF AND PUSH20 0xFFFFFFFFFFFFFFFFFFFFFFFFFFFFFFFFFFFFFFFF AND CALLER PUSH20 0xFFFFFFFFFFFFFFFFFFFFFFFFFFFFFFFFFFFFFFFF AND EQ PUSH2 0x624 JUMPI PUSH1 0x40 MLOAD PUSH32 0x8C379A000000000000000000000000000000000000000000000000000000000 DUP2 MSTORE PUSH1 0x4 ADD PUSH2 0x61B SWAP1 PUSH2 0x158F JUMP JUMPDEST PUSH1 0x40 MLOAD DUP1 SWAP2 SUB SWAP1 REVERT JUMPDEST PUSH1 0x1 PUSH1 0x0 DUP3 PUSH20 0xFFFFFFFFFFFFFFFFFFFFFFFFFFFFFFFFFFFFFFFF AND PUSH20 0xFFFFFFFFFFFFFFFFFFFFFFFFFFFFFFFFFFFFFFFF AND DUP2 MSTORE PUSH1 0x20 ADD SWAP1 DUP2 MSTORE PUSH1 0x20 ADD PUSH1 0x0 KECCAK256 PUSH1 0x1 ADD PUSH1 0x0 SWAP1 SLOAD SWAP1 PUSH2 0x100 EXP SWAP1 DIV PUSH1 0xFF AND ISZERO PUSH2 0x6B4 JUMPI PUSH1 0x40 MLOAD PUSH32 0x8C379A000000000000000000000000000000000000000000000000000000000 DUP2 MSTORE PUSH1 0x4 ADD PUSH2 0x6AB SWAP1 PUSH2 0x15FB JUMP JUMPDEST PUSH1 0x40 MLOAD DUP1 SWAP2 SUB SWAP1 REVERT JUMPDEST PUSH1 0x0 PUSH1 0x1 PUSH1 0x0 DUP4 PUSH20 0xFFFFFFFFFFFFFFFFFFFFFFFFFFFFFFFFFFFFFFFF AND PUSH20 0xFFFFFFFFFFFFFFFFFFFFFFFFFFFFFFFFFFFFFFFF AND DUP2 MSTORE PUSH1 0x20 ADD SWAP1 DUP2 MSTORE PUSH1 0x20 ADD PUSH1 0x0 KECCAK256 PUSH1 0x0 ADD SLOAD EQ PUSH2 0x703 JUMPI PUSH1 0x0 DUP1 REVERT JUMPDEST PUSH1 0x1 DUP1 PUSH1 0x0 DUP4 PUSH20 0xFFFFFFFFFFFFFFFFFFFFFFFFFFFFFFFFFFFFFFFF AND PUSH20 0xFFFFFFFFFFFFFFFFFFFFFFFFFFFFFFFFFFFFFFFF AND DUP2 MSTORE PUSH1 0x20 ADD SWAP1 DUP2 MSTORE PUSH1 0x20 ADD PUSH1 0x0 KECCAK256 PUSH1 0x0 ADD DUP2 SWAP1 SSTORE POP POP JUMP JUMPDEST PUSH1 0x1 PUSH1 0x20 MSTORE DUP1 PUSH1 0x0 MSTORE PUSH1 0x40 PUSH1 0x0 KECCAK256 PUSH1 0x0 SWAP2 POP SWAP1 POP DUP1 PUSH1 0x0 ADD SLOAD SWAP1 DUP1 PUSH1 0x1 ADD PUSH1 0x0 SWAP1 SLOAD SWAP1 PUSH2 0x100 EXP SWAP1 DIV PUSH1 0xFF AND SWAP1 DUP1 PUSH1 0x2 ADD SLOAD SWAP1 POP DUP4 JUMP JUMPDEST PUSH1 0x2 DUP1 DUP2 GT ISZERO PUSH2 0x797 JUMPI PUSH2 0x796 PUSH2 0x1112 JUMP JUMPDEST JUMPDEST PUSH1 0x3 PUSH1 0x0 SWAP1 SLOAD SWAP1 PUSH2 0x100 EXP SWAP1 DIV PUSH1 0xFF AND PUSH1 0x2 DUP2 GT ISZERO PUSH2 0x7B9 JUMPI PUSH2 0x7B8 PUSH2 0x1112 JUMP JUMPDEST JUMPDEST EQ PUSH2 0x7F9 JUMPI PUSH1 0x40 MLOAD PUSH32 0x8C379A000000000000000000000000000000000000000000000000000000000 DUP2 MSTORE PUSH1 0x4 ADD PUSH2 0x7F0 SWAP1 PUSH2 0x1667 JUMP JUMPDEST PUSH1 0x40 MLOAD DUP1 SWAP2 SUB SWAP1 REVERT JUMPDEST PUSH1 0x0 PUSH1 0x3 PUSH1 0x0 PUSH2 0x100 EXP DUP2 SLOAD DUP2 PUSH1 0xFF MUL NOT AND SWAP1 DUP4 PUSH1 0x2 DUP2 GT ISZERO PUSH2 0x81F JUMPI PUSH2 0x81E PUSH2 0x1112 JUMP JUMPDEST JUMPDEST MUL OR SWAP1 SSTORE POP PUSH1 0x0 JUMPDEST DUP2 MLOAD DUP2 LT ISZERO PUSH2 0x8C7 JUMPI PUSH1 0x2 PUSH1 0x40 MLOAD DUP1 PUSH1 0x40 ADD PUSH1 0x40 MSTORE DUP1 DUP5 DUP5 DUP2 MLOAD DUP2 LT PUSH2 0x850 JUMPI PUSH2 0x84F PUSH2 0x130A JUMP JUMPDEST JUMPDEST PUSH1 0x20 MUL PUSH1 0x20 ADD ADD MLOAD DUP2 MSTORE PUSH1 0x20 ADD PUSH1 0x0 DUP2 MSTORE POP SWAP1 DUP1 PUSH1 0x1 DUP2 SLOAD ADD DUP1 DUP3 SSTORE DUP1 SWAP2 POP POP PUSH1 0x1 SWAP1 SUB SWAP1 PUSH1 0x0 MSTORE PUSH1 0x20 PUSH1 0x0 KECCAK256 SWAP1 PUSH1 0x2 MUL ADD PUSH1 0x0 SWAP1 SWAP2 SWAP1 SWAP2 SWAP1 SWAP2 POP PUSH1 0x0 DUP3 ADD MLOAD DUP2 PUSH1 0x0 ADD SWAP1 DUP1 MLOAD SWAP1 PUSH1 0x20 ADD SWAP1 PUSH2 0x8A7 SWAP3 SWAP2 SWAP1 PUSH2 0xBB5 JUMP JUMPDEST POP PUSH1 0x20 DUP3 ADD MLOAD DUP2 PUSH1 0x1 ADD SSTORE POP POP DUP1 DUP1 PUSH2 0x8BF SWAP1 PUSH2 0x1687 JUMP JUMPDEST SWAP2 POP POP PUSH2 0x827 JUMP JUMPDEST POP POP JUMP JUMPDEST PUSH1 0x0 DUP1 SLOAD SWAP1 PUSH2 0x100 EXP SWAP1 DIV PUSH20 0xFFFFFFFFFFFFFFFFFFFFFFFFFFFFFFFFFFFFFFFF AND PUSH20 0xFFFFFFFFFFFFFFFFFFFFFFFFFFFFFFFFFFFFFFFF AND CALLER PUSH20 0xFFFFFFFFFFFFFFFFFFFFFFFFFFFFFFFFFFFFFFFF AND EQ PUSH2 0x959 JUMPI PUSH1 0x40 MLOAD PUSH32 0x8C379A000000000000000000000000000000000000000000000000000000000 DUP2 MSTORE PUSH1 0x4 ADD PUSH2 0x950 SWAP1 PUSH2 0x1491 JUMP JUMPDEST PUSH1 0x40 MLOAD DUP1 SWAP2 SUB SWAP1 REVERT JUMPDEST PUSH1 0x1 PUSH1 0x2 DUP2 GT ISZERO PUSH2 0x96D JUMPI PUSH2 0x96C PUSH2 0x1112 JUMP JUMPDEST JUMPDEST PUSH1 0x3 PUSH1 0x0 SWAP1 SLOAD SWAP1 PUSH2 0x100 EXP SWAP1 DIV PUSH1 0xFF AND PUSH1 0x2 DUP2 GT ISZERO PUSH2 0x98F JUMPI PUSH2 0x98E PUSH2 0x1112 JUMP JUMPDEST JUMPDEST EQ PUSH2 0x9CF JUMPI PUSH1 0x40 MLOAD PUSH32 0x8C379A000000000000000000000000000000000000000000000000000000000 DUP2 MSTORE PUSH1 0x4 ADD PUSH2 0x9C6 SWAP1 PUSH2 0x1212 JUMP JUMPDEST PUSH1 0x40 MLOAD DUP1 SWAP2 SUB SWAP1 REVERT JUMPDEST PUSH1 0x2 PUSH1 0x3 PUSH1 0x0 PUSH2 0x100 EXP DUP2 SLOAD DUP2 PUSH1 0xFF MUL NOT AND SWAP1 DUP4 PUSH1 0x2 DUP2 GT ISZERO PUSH2 0x9F5 JUMPI PUSH2 0x9F4 PUSH2 0x1112 JUMP JUMPDEST JUMPDEST MUL OR SWAP1 SSTORE POP JUMP JUMPDEST PUSH1 0x3 PUSH1 0x0 SWAP1 SLOAD SWAP1 PUSH2 0x100 EXP SWAP1 DIV PUSH1 0xFF AND DUP2 JUMP JUMPDEST PUSH1 0x60 PUSH1 0x2 DUP1 DUP2 GT ISZERO PUSH2 0xA24 JUMPI PUSH2 0xA23 PUSH2 0x1112 JUMP JUMPDEST JUMPDEST PUSH1 0x3 PUSH1 0x0 SWAP1 SLOAD SWAP1 PUSH2 0x100 EXP SWAP1 DIV PUSH1 0xFF AND PUSH1 0x2 DUP2 GT ISZERO PUSH2 0xA46 JUMPI PUSH2 0xA45 PUSH2 0x1112 JUMP JUMPDEST JUMPDEST EQ PUSH2 0xA86 JUMPI PUSH1 0x40 MLOAD PUSH32 0x8C379A000000000000000000000000000000000000000000000000000000000 DUP2 MSTORE PUSH1 0x4 ADD PUSH2 0xA7D SWAP1 PUSH2 0x1667 JUMP JUMPDEST PUSH1 0x40 MLOAD DUP1 SWAP2 SUB SWAP1 REVERT JUMPDEST PUSH1 0x0 DUP1 JUMPDEST PUSH1 0x2 DUP1 SLOAD SWAP1 POP DUP2 LT ISZERO PUSH2 0xBB0 JUMPI DUP2 PUSH1 0x2 DUP3 DUP2 SLOAD DUP2 LT PUSH2 0xAAC JUMPI PUSH2 0xAAB PUSH2 0x130A JUMP JUMPDEST JUMPDEST SWAP1 PUSH1 0x0 MSTORE PUSH1 0x20 PUSH1 0x0 KECCAK256 SWAP1 PUSH1 0x2 MUL ADD PUSH1 0x1 ADD SLOAD GT ISZERO PUSH2 0xB9D JUMPI PUSH1 0x2 DUP2 DUP2 SLOAD DUP2 LT PUSH2 0xAD8 JUMPI PUSH2 0xAD7 PUSH2 0x130A JUMP JUMPDEST JUMPDEST SWAP1 PUSH1 0x0 MSTORE PUSH1 0x20 PUSH1 0x0 KECCAK256 SWAP1 PUSH1 0x2 MUL ADD PUSH1 0x1 ADD SLOAD SWAP2 POP PUSH1 0x2 DUP2 DUP2 SLOAD DUP2 LT PUSH2 0xB00 JUMPI PUSH2 0xAFF PUSH2 0x130A JUMP JUMPDEST JUMPDEST SWAP1 PUSH1 0x0 MSTORE PUSH1 0x20 PUSH1 0x0 KECCAK256 SWAP1 PUSH1 0x2 MUL ADD PUSH1 0x0 ADD DUP1 SLOAD PUSH2 0xB1C SWAP1 PUSH2 0x13ED JUMP JUMPDEST DUP1 PUSH1 0x1F ADD PUSH1 0x20 DUP1 SWAP2 DIV MUL PUSH1 0x20 ADD PUSH1 0x40 MLOAD SWAP1 DUP2 ADD PUSH1 0x40 MSTORE DUP1 SWAP3 SWAP2 SWAP1 DUP2 DUP2 MSTORE PUSH1 0x20 ADD DUP3 DUP1 SLOAD PUSH2 0xB48 SWAP1 PUSH2 0x13ED JUMP JUMPDEST DUP1 ISZERO PUSH2 0xB95 JUMPI DUP1 PUSH1 0x1F LT PUSH2 0xB6A JUMPI PUSH2 0x100 DUP1 DUP4 SLOAD DIV MUL DUP4 MSTORE SWAP2 PUSH1 0x20 ADD SWAP2 PUSH2 0xB95 JUMP JUMPDEST DUP3 ADD SWAP2 SWAP1 PUSH1 0x0 MSTORE PUSH1 0x20 PUSH1 0x0 KECCAK256 SWAP1 JUMPDEST DUP2 SLOAD DUP2 MSTORE SWAP1 PUSH1 0x1 ADD SWAP1 PUSH1 0x20 ADD DUP1 DUP4 GT PUSH2 0xB78 JUMPI DUP3 SWAP1 SUB PUSH1 0x1F AND DUP3 ADD SWAP2 JUMPDEST POP POP POP POP POP SWAP3 POP JUMPDEST DUP1 DUP1 PUSH2 0xBA8 SWAP1 PUSH2 0x1687 JUMP JUMPDEST SWAP2 POP POP PUSH2 0xA8A JUMP JUMPDEST POP POP SWAP1 JUMP JUMPDEST DUP3 DUP1 SLOAD PUSH2 0xBC1 SWAP1 PUSH2 0x13ED JUMP JUMPDEST SWAP1 PUSH1 0x0 MSTORE PUSH1 0x20 PUSH1 0x0 KECCAK256 SWAP1 PUSH1 0x1F ADD PUSH1 0x20 SWAP1 DIV DUP2 ADD SWAP3 DUP3 PUSH2 0xBE3 JUMPI PUSH1 0x0 DUP6 SSTORE PUSH2 0xC2A JUMP JUMPDEST DUP3 PUSH1 0x1F LT PUSH2 0xBFC JUMPI DUP1 MLOAD PUSH1 0xFF NOT AND DUP4 DUP1 ADD OR DUP6 SSTORE PUSH2 0xC2A JUMP JUMPDEST DUP3 DUP1 ADD PUSH1 0x1 ADD DUP6 SSTORE DUP3 ISZERO PUSH2 0xC2A JUMPI SWAP2 DUP3 ADD JUMPDEST DUP3 DUP2 GT ISZERO PUSH2 0xC29 JUMPI DUP3 MLOAD DUP3 SSTORE SWAP2 PUSH1 0x20 ADD SWAP2 SWAP1 PUSH1 0x1 ADD SWAP1 PUSH2 0xC0E JUMP JUMPDEST JUMPDEST POP SWAP1 POP PUSH2 0xC37 SWAP2 SWAP1 PUSH2 0xC3B JUMP JUMPDEST POP SWAP1 JUMP JUMPDEST JUMPDEST DUP1 DUP3 GT ISZERO PUSH2 0xC54 JUMPI PUSH1 0x0 DUP2 PUSH1 0x0 SWAP1 SSTORE POP PUSH1 0x1 ADD PUSH2 0xC3C JUMP JUMPDEST POP SWAP1 JUMP JUMPDEST PUSH1 0x0 PUSH1 0x40 MLOAD SWAP1 POP SWAP1 JUMP JUMPDEST PUSH1 0x0 DUP1 REVERT JUMPDEST PUSH1 0x0 DUP1 REVERT JUMPDEST PUSH1 0x0 DUP2 SWAP1 POP SWAP2 SWAP1 POP JUMP JUMPDEST PUSH2 0xC7F DUP2 PUSH2 0xC6C JUMP JUMPDEST DUP2 EQ PUSH2 0xC8A JUMPI PUSH1 0x0 DUP1 REVERT JUMPDEST POP JUMP JUMPDEST PUSH1 0x0 DUP2 CALLDATALOAD SWAP1 POP PUSH2 0xC9C DUP2 PUSH2 0xC76 JUMP JUMPDEST SWAP3 SWAP2 POP POP JUMP JUMPDEST PUSH1 0x0 PUSH1 0x20 DUP3 DUP5 SUB SLT ISZERO PUSH2 0xCB8 JUMPI PUSH2 0xCB7 PUSH2 0xC62 JUMP JUMPDEST JUMPDEST PUSH1 0x0 PUSH2 0xCC6 DUP5 DUP3 DUP6 ADD PUSH2 0xC8D JUMP JUMPDEST SWAP2 POP POP SWAP3 SWAP2 POP POP JUMP JUMPDEST PUSH1 0x0 PUSH20 0xFFFFFFFFFFFFFFFFFFFFFFFFFFFFFFFFFFFFFFFF DUP3 AND SWAP1 POP SWAP2 SWAP1 POP JUMP JUMPDEST PUSH1 0x0 PUSH2 0xCFA DUP3 PUSH2 0xCCF JUMP JUMPDEST SWAP1 POP SWAP2 SWAP1 POP JUMP JUMPDEST PUSH2 0xD0A DUP2 PUSH2 0xCEF JUMP JUMPDEST DUP3 MSTORE POP POP JUMP JUMPDEST PUSH1 0x0 PUSH1 0x20 DUP3 ADD SWAP1 POP PUSH2 0xD25 PUSH1 0x0 DUP4 ADD DUP5 PUSH2 0xD01 JUMP JUMPDEST SWAP3 SWAP2 POP POP JUMP JUMPDEST PUSH1 0x0 DUP2 MLOAD SWAP1 POP SWAP2 SWAP1 POP JUMP JUMPDEST PUSH1 0x0 DUP3 DUP3 MSTORE PUSH1 0x20 DUP3 ADD SWAP1 POP SWAP3 SWAP2 POP POP JUMP JUMPDEST PUSH1 0x0 JUMPDEST DUP4 DUP2 LT ISZERO PUSH2 0xD65 JUMPI DUP1 DUP3 ADD MLOAD DUP2 DUP5 ADD MSTORE PUSH1 0x20 DUP2 ADD SWAP1 POP PUSH2 0xD4A JUMP JUMPDEST DUP4 DUP2 GT ISZERO PUSH2 0xD74 JUMPI PUSH1 0x0 DUP5 DUP5 ADD MSTORE JUMPDEST POP POP POP POP JUMP JUMPDEST PUSH1 0x0 PUSH1 0x1F NOT PUSH1 0x1F DUP4 ADD AND SWAP1 POP SWAP2 SWAP1 POP JUMP JUMPDEST PUSH1 0x0 PUSH2 0xD96 DUP3 PUSH2 0xD2B JUMP JUMPDEST PUSH2 0xDA0 DUP2 DUP6 PUSH2 0xD36 JUMP JUMPDEST SWAP4 POP PUSH2 0xDB0 DUP2 DUP6 PUSH1 0x20 DUP7 ADD PUSH2 0xD47 JUMP JUMPDEST PUSH2 0xDB9 DUP2 PUSH2 0xD7A JUMP JUMPDEST DUP5 ADD SWAP2 POP POP SWAP3 SWAP2 POP POP JUMP JUMPDEST PUSH2 0xDCD DUP2 PUSH2 0xC6C JUMP JUMPDEST DUP3 MSTORE POP POP JUMP JUMPDEST PUSH1 0x0 PUSH1 0x40 DUP3 ADD SWAP1 POP DUP2 DUP2 SUB PUSH1 0x0 DUP4 ADD MSTORE PUSH2 0xDED DUP2 DUP6 PUSH2 0xD8B JUMP JUMPDEST SWAP1 POP PUSH2 0xDFC PUSH1 0x20 DUP4 ADD DUP5 PUSH2 0xDC4 JUMP JUMPDEST SWAP4 SWAP3 POP POP POP JUMP JUMPDEST PUSH2 0xE0C DUP2 PUSH2 0xCEF JUMP JUMPDEST DUP2 EQ PUSH2 0xE17 JUMPI PUSH1 0x0 DUP1 REVERT JUMPDEST POP JUMP JUMPDEST PUSH1 0x0 DUP2 CALLDATALOAD SWAP1 POP PUSH2 0xE29 DUP2 PUSH2 0xE03 JUMP JUMPDEST SWAP3 SWAP2 POP POP JUMP JUMPDEST PUSH1 0x0 PUSH1 0x20 DUP3 DUP5 SUB SLT ISZERO PUSH2 0xE45 JUMPI PUSH2 0xE44 PUSH2 0xC62 JUMP JUMPDEST JUMPDEST PUSH1 0x0 PUSH2 0xE53 DUP5 DUP3 DUP6 ADD PUSH2 0xE1A JUMP JUMPDEST SWAP2 POP POP SWAP3 SWAP2 POP POP JUMP JUMPDEST PUSH1 0x0 DUP2 ISZERO ISZERO SWAP1 POP SWAP2 SWAP1 POP JUMP JUMPDEST PUSH2 0xE71 DUP2 PUSH2 0xE5C JUMP JUMPDEST DUP3 MSTORE POP POP JUMP JUMPDEST PUSH1 0x0 PUSH1 0x60 DUP3 ADD SWAP1 POP PUSH2 0xE8C PUSH1 0x0 DUP4 ADD DUP7 PUSH2 0xDC4 JUMP JUMPDEST PUSH2 0xE99 PUSH1 0x20 DUP4 ADD DUP6 PUSH2 0xE68 JUMP JUMPDEST PUSH2 0xEA6 PUSH1 0x40 DUP4 ADD DUP5 PUSH2 0xDC4 JUMP JUMPDEST SWAP5 SWAP4 POP POP POP POP JUMP JUMPDEST PUSH1 0x0 DUP1 REVERT JUMPDEST PUSH32 0x4E487B7100000000000000000000000000000000000000000000000000000000 PUSH1 0x0 MSTORE PUSH1 0x41 PUSH1 0x4 MSTORE PUSH1 0x24 PUSH1 0x0 REVERT JUMPDEST PUSH2 0xEEB DUP3 PUSH2 0xD7A JUMP JUMPDEST DUP2 ADD DUP2 DUP2 LT PUSH8 0xFFFFFFFFFFFFFFFF DUP3 GT OR ISZERO PUSH2 0xF0A JUMPI PUSH2 0xF09 PUSH2 0xEB3 JUMP JUMPDEST JUMPDEST DUP1 PUSH1 0x40 MSTORE POP POP POP JUMP JUMPDEST PUSH1 0x0 PUSH2 0xF1D PUSH2 0xC58 JUMP JUMPDEST SWAP1 POP PUSH2 0xF29 DUP3 DUP3 PUSH2 0xEE2 JUMP JUMPDEST SWAP2 SWAP1 POP JUMP JUMPDEST PUSH1 0x0 PUSH8 0xFFFFFFFFFFFFFFFF DUP3 GT ISZERO PUSH2 0xF49 JUMPI PUSH2 0xF48 PUSH2 0xEB3 JUMP JUMPDEST JUMPDEST PUSH1 0x20 DUP3 MUL SWAP1 POP PUSH1 0x20 DUP2 ADD SWAP1 POP SWAP2 SWAP1 POP JUMP JUMPDEST PUSH1 0x0 DUP1 REVERT JUMPDEST PUSH1 0x0 DUP1 REVERT JUMPDEST PUSH1 0x0 PUSH8 0xFFFFFFFFFFFFFFFF DUP3 GT ISZERO PUSH2 0xF7F JUMPI PUSH2 0xF7E PUSH2 0xEB3 JUMP JUMPDEST JUMPDEST PUSH2 0xF88 DUP3 PUSH2 0xD7A JUMP JUMPDEST SWAP1 POP PUSH1 0x20 DUP2 ADD SWAP1 POP SWAP2 SWAP1 POP JUMP JUMPDEST DUP3 DUP2 DUP4 CALLDATACOPY PUSH1 0x0 DUP4 DUP4 ADD MSTORE POP POP POP JUMP JUMPDEST PUSH1 0x0 PUSH2 0xFB7 PUSH2 0xFB2 DUP5 PUSH2 0xF64 JUMP JUMPDEST PUSH2 0xF13 JUMP JUMPDEST SWAP1 POP DUP3 DUP2 MSTORE PUSH1 0x20 DUP2 ADD DUP5 DUP5 DUP5 ADD GT ISZERO PUSH2 0xFD3 JUMPI PUSH2 0xFD2 PUSH2 0xF5F JUMP JUMPDEST JUMPDEST PUSH2 0xFDE DUP5 DUP3 DUP6 PUSH2 0xF95 JUMP JUMPDEST POP SWAP4 SWAP3 POP POP POP JUMP JUMPDEST PUSH1 0x0 DUP3 PUSH1 0x1F DUP4 ADD SLT PUSH2 0xFFB JUMPI PUSH2 0xFFA PUSH2 0xEAE JUMP JUMPDEST JUMPDEST DUP2 CALLDATALOAD PUSH2 0x100B DUP5 DUP3 PUSH1 0x20 DUP7 ADD PUSH2 0xFA4 JUMP JUMPDEST SWAP2 POP POP SWAP3 SWAP2 POP POP JUMP JUMPDEST PUSH1 0x0 PUSH2 0x1027 PUSH2 0x1022 DUP5 PUSH2 0xF2E JUMP JUMPDEST PUSH2 0xF13 JUMP JUMPDEST SWAP1 POP DUP1 DUP4 DUP3 MSTORE PUSH1 0x20 DUP3 ADD SWAP1 POP PUSH1 0x20 DUP5 MUL DUP4 ADD DUP6 DUP2 GT ISZERO PUSH2 0x104A JUMPI PUSH2 0x1049 PUSH2 0xF5A JUMP JUMPDEST JUMPDEST DUP4 JUMPDEST DUP2 DUP2 LT ISZERO PUSH2 0x1091 JUMPI DUP1 CALLDATALOAD PUSH8 0xFFFFFFFFFFFFFFFF DUP2 GT ISZERO PUSH2 0x106F JUMPI PUSH2 0x106E PUSH2 0xEAE JUMP JUMPDEST JUMPDEST DUP1 DUP7 ADD PUSH2 0x107C DUP10 DUP3 PUSH2 0xFE6 JUMP JUMPDEST DUP6 MSTORE PUSH1 0x20 DUP6 ADD SWAP5 POP POP POP PUSH1 0x20 DUP2 ADD SWAP1 POP PUSH2 0x104C JUMP JUMPDEST POP POP POP SWAP4 SWAP3 POP POP POP JUMP JUMPDEST PUSH1 0x0 DUP3 PUSH1 0x1F DUP4 ADD SLT PUSH2 0x10B0 JUMPI PUSH2 0x10AF PUSH2 0xEAE JUMP JUMPDEST JUMPDEST DUP2 CALLDATALOAD PUSH2 0x10C0 DUP5 DUP3 PUSH1 0x20 DUP7 ADD PUSH2 0x1014 JUMP JUMPDEST SWAP2 POP POP SWAP3 SWAP2 POP POP JUMP JUMPDEST PUSH1 0x0 PUSH1 0x20 DUP3 DUP5 SUB SLT ISZERO PUSH2 0x10DF JUMPI PUSH2 0x10DE PUSH2 0xC62 JUMP JUMPDEST JUMPDEST PUSH1 0x0 DUP3 ADD CALLDATALOAD PUSH8 0xFFFFFFFFFFFFFFFF DUP2 GT ISZERO PUSH2 0x10FD JUMPI PUSH2 0x10FC PUSH2 0xC67 JUMP JUMPDEST JUMPDEST PUSH2 0x1109 DUP5 DUP3 DUP6 ADD PUSH2 0x109B JUMP JUMPDEST SWAP2 POP POP SWAP3 SWAP2 POP POP JUMP JUMPDEST PUSH32 0x4E487B7100000000000000000000000000000000000000000000000000000000 PUSH1 0x0 MSTORE PUSH1 0x21 PUSH1 0x4 MSTORE PUSH1 0x24 PUSH1 0x0 REVERT JUMPDEST PUSH1 0x3 DUP2 LT PUSH2 0x1152 JUMPI PUSH2 0x1151 PUSH2 0x1112 JUMP JUMPDEST JUMPDEST POP JUMP JUMPDEST PUSH1 0x0 DUP2 SWAP1 POP PUSH2 0x1163 DUP3 PUSH2 0x1141 JUMP JUMPDEST SWAP2 SWAP1 POP JUMP JUMPDEST PUSH1 0x0 PUSH2 0x1173 DUP3 PUSH2 0x1155 JUMP JUMPDEST SWAP1 POP SWAP2 SWAP1 POP JUMP JUMPDEST PUSH2 0x1183 DUP2 PUSH2 0x1168 JUMP JUMPDEST DUP3 MSTORE POP POP JUMP JUMPDEST PUSH1 0x0 PUSH1 0x20 DUP3 ADD SWAP1 POP PUSH2 0x119E PUSH1 0x0 DUP4 ADD DUP5 PUSH2 0x117A JUMP JUMPDEST SWAP3 SWAP2 POP POP JUMP JUMPDEST PUSH1 0x0 PUSH1 0x20 DUP3 ADD SWAP1 POP DUP2 DUP2 SUB PUSH1 0x0 DUP4 ADD MSTORE PUSH2 0x11BE DUP2 DUP5 PUSH2 0xD8B JUMP JUMPDEST SWAP1 POP SWAP3 SWAP2 POP POP JUMP JUMPDEST PUSH32 0x6974206D75737420626520696E20566F74696E6720506572696F640000000000 PUSH1 0x0 DUP3 ADD MSTORE POP JUMP JUMPDEST PUSH1 0x0 PUSH2 0x11FC PUSH1 0x1B DUP4 PUSH2 0xD36 JUMP JUMPDEST SWAP2 POP PUSH2 0x1207 DUP3 PUSH2 0x11C6 JUMP JUMPDEST PUSH1 0x20 DUP3 ADD SWAP1 POP SWAP2 SWAP1 POP JUMP JUMPDEST PUSH1 0x0 PUSH1 0x20 DUP3 ADD SWAP1 POP DUP2 DUP2 SUB PUSH1 0x0 DUP4 ADD MSTORE PUSH2 0x122B DUP2 PUSH2 0x11EF JUMP JUMPDEST SWAP1 POP SWAP2 SWAP1 POP JUMP JUMPDEST PUSH32 0x486173206E6F20726967687420746F20766F7465000000000000000000000000 PUSH1 0x0 DUP3 ADD MSTORE POP JUMP JUMPDEST PUSH1 0x0 PUSH2 0x1268 PUSH1 0x14 DUP4 PUSH2 0xD36 JUMP JUMPDEST SWAP2 POP PUSH2 0x1273 DUP3 PUSH2 0x1232 JUMP JUMPDEST PUSH1 0x20 DUP3 ADD SWAP1 POP SWAP2 SWAP1 POP JUMP JUMPDEST PUSH1 0x0 PUSH1 0x20 DUP3 ADD SWAP1 POP DUP2 DUP2 SUB PUSH1 0x0 DUP4 ADD MSTORE PUSH2 0x1297 DUP2 PUSH2 0x125B JUMP JUMPDEST SWAP1 POP SWAP2 SWAP1 POP JUMP JUMPDEST PUSH32 0x416C726561647920766F7465642E000000000000000000000000000000000000 PUSH1 0x0 DUP3 ADD MSTORE POP JUMP JUMPDEST PUSH1 0x0 PUSH2 0x12D4 PUSH1 0xE DUP4 PUSH2 0xD36 JUMP JUMPDEST SWAP2 POP PUSH2 0x12DF DUP3 PUSH2 0x129E JUMP JUMPDEST PUSH1 0x20 DUP3 ADD SWAP1 POP SWAP2 SWAP1 POP JUMP JUMPDEST PUSH1 0x0 PUSH1 0x20 DUP3 ADD SWAP1 POP DUP2 DUP2 SUB PUSH1 0x0 DUP4 ADD MSTORE PUSH2 0x1303 DUP2 PUSH2 0x12C7 JUMP JUMPDEST SWAP1 POP SWAP2 SWAP1 POP JUMP JUMPDEST PUSH32 0x4E487B7100000000000000000000000000000000000000000000000000000000 PUSH1 0x0 MSTORE PUSH1 0x32 PUSH1 0x4 MSTORE PUSH1 0x24 PUSH1 0x0 REVERT JUMPDEST PUSH32 0x4E487B7100000000000000000000000000000000000000000000000000000000 PUSH1 0x0 MSTORE PUSH1 0x11 PUSH1 0x4 MSTORE PUSH1 0x24 PUSH1 0x0 REVERT JUMPDEST PUSH1 0x0 PUSH2 0x1373 DUP3 PUSH2 0xC6C JUMP JUMPDEST SWAP2 POP PUSH2 0x137E DUP4 PUSH2 0xC6C JUMP JUMPDEST SWAP3 POP DUP3 PUSH32 0xFFFFFFFFFFFFFFFFFFFFFFFFFFFFFFFFFFFFFFFFFFFFFFFFFFFFFFFFFFFFFFFF SUB DUP3 GT ISZERO PUSH2 0x13B3 JUMPI PUSH2 0x13B2 PUSH2 0x1339 JUMP JUMPDEST JUMPDEST DUP3 DUP3 ADD SWAP1 POP SWAP3 SWAP2 POP POP JUMP JUMPDEST PUSH32 0x4E487B7100000000000000000000000000000000000000000000000000000000 PUSH1 0x0 MSTORE PUSH1 0x22 PUSH1 0x4 MSTORE PUSH1 0x24 PUSH1 0x0 REVERT JUMPDEST PUSH1 0x0 PUSH1 0x2 DUP3 DIV SWAP1 POP PUSH1 0x1 DUP3 AND DUP1 PUSH2 0x1405 JUMPI PUSH1 0x7F DUP3 AND SWAP2 POP JUMPDEST PUSH1 0x20 DUP3 LT DUP2 EQ ISZERO PUSH2 0x1419 JUMPI PUSH2 0x1418 PUSH2 0x13BE JUMP JUMPDEST JUMPDEST POP SWAP2 SWAP1 POP JUMP JUMPDEST PUSH32 0x4F6E6C79206368616972706572736F6E2063616E20737461727420616E642065 PUSH1 0x0 DUP3 ADD MSTORE PUSH32 0x6E642074686520766F74696E6700000000000000000000000000000000000000 PUSH1 0x20 DUP3 ADD MSTORE POP JUMP JUMPDEST PUSH1 0x0 PUSH2 0x147B PUSH1 0x2D DUP4 PUSH2 0xD36 JUMP JUMPDEST SWAP2 POP PUSH2 0x1486 DUP3 PUSH2 0x141F JUMP JUMPDEST PUSH1 0x40 DUP3 ADD SWAP1 POP SWAP2 SWAP1 POP JUMP JUMPDEST PUSH1 0x0 PUSH1 0x20 DUP3 ADD SWAP1 POP DUP2 DUP2 SUB PUSH1 0x0 DUP4 ADD MSTORE PUSH2 0x14AA DUP2 PUSH2 0x146E JUMP JUMPDEST SWAP1 POP SWAP2 SWAP1 POP JUMP JUMPDEST PUSH32 0x6974206D75737420626520696E20537461727465640000000000000000000000 PUSH1 0x0 DUP3 ADD MSTORE POP JUMP JUMPDEST PUSH1 0x0 PUSH2 0x14E7 PUSH1 0x15 DUP4 PUSH2 0xD36 JUMP JUMPDEST SWAP2 POP PUSH2 0x14F2 DUP3 PUSH2 0x14B1 JUMP JUMPDEST PUSH1 0x20 DUP3 ADD SWAP1 POP SWAP2 SWAP1 POP JUMP JUMPDEST PUSH1 0x0 PUSH1 0x20 DUP3 ADD SWAP1 POP DUP2 DUP2 SUB PUSH1 0x0 DUP4 ADD MSTORE PUSH2 0x1516 DUP2 PUSH2 0x14DA JUMP JUMPDEST SWAP1 POP SWAP2 SWAP1 POP JUMP JUMPDEST PUSH32 0x4F6E6C79206368616972706572736F6E2063616E206769766520726967687420 PUSH1 0x0 DUP3 ADD MSTORE PUSH32 0x746F20766F74652E000000000000000000000000000000000000000000000000 PUSH1 0x20 DUP3 ADD MSTORE POP JUMP JUMPDEST PUSH1 0x0 PUSH2 0x1579 PUSH1 0x28 DUP4 PUSH2 0xD36 JUMP JUMPDEST SWAP2 POP PUSH2 0x1584 DUP3 PUSH2 0x151D JUMP JUMPDEST PUSH1 0x40 DUP3 ADD SWAP1 POP SWAP2 SWAP1 POP JUMP JUMPDEST PUSH1 0x0 PUSH1 0x20 DUP3 ADD SWAP1 POP DUP2 DUP2 SUB PUSH1 0x0 DUP4 ADD MSTORE PUSH2 0x15A8 DUP2 PUSH2 0x156C JUMP JUMPDEST SWAP1 POP SWAP2 SWAP1 POP JUMP JUMPDEST PUSH32 0x54686520766F74657220616C726561647920766F7465642E0000000000000000 PUSH1 0x0 DUP3 ADD MSTORE POP JUMP JUMPDEST PUSH1 0x0 PUSH2 0x15E5 PUSH1 0x18 DUP4 PUSH2 0xD36 JUMP JUMPDEST SWAP2 POP PUSH2 0x15F0 DUP3 PUSH2 0x15AF JUMP JUMPDEST PUSH1 0x20 DUP3 ADD SWAP1 POP SWAP2 SWAP1 POP JUMP JUMPDEST PUSH1 0x0 PUSH1 0x20 DUP3 ADD SWAP1 POP DUP2 DUP2 SUB PUSH1 0x0 DUP4 ADD MSTORE PUSH2 0x1614 DUP2 PUSH2 0x15D8 JUMP JUMPDEST SWAP1 POP SWAP2 SWAP1 POP JUMP JUMPDEST PUSH32 0x6974206D75737420626520696E20456E64656420506572696F64000000000000 PUSH1 0x0 DUP3 ADD MSTORE POP JUMP JUMPDEST PUSH1 0x0 PUSH2 0x1651 PUSH1 0x1A DUP4 PUSH2 0xD36 JUMP JUMPDEST SWAP2 POP PUSH2 0x165C DUP3 PUSH2 0x161B JUMP JUMPDEST PUSH1 0x20 DUP3 ADD SWAP1 POP SWAP2 SWAP1 POP JUMP JUMPDEST PUSH1 0x0 PUSH1 0x20 DUP3 ADD SWAP1 POP DUP2 DUP2 SUB PUSH1 0x0 DUP4 ADD MSTORE PUSH2 0x1680 DUP2 PUSH2 0x1644 JUMP JUMPDEST SWAP1 POP SWAP2 SWAP1 POP JUMP JUMPDEST PUSH1 0x0 PUSH2 0x1692 DUP3 PUSH2 0xC6C JUMP JUMPDEST SWAP2 POP PUSH32 0xFFFFFFFFFFFFFFFFFFFFFFFFFFFFFFFFFFFFFFFFFFFFFFFFFFFFFFFFFFFFFFFF DUP3 EQ ISZERO PUSH2 0x16C5 JUMPI PUSH2 0x16C4 PUSH2 0x1339 JUMP JUMPDEST JUMPDEST PUSH1 0x1 DUP3 ADD SWAP1 POP SWAP2 SWAP1 POP JUMP INVALID LOG2 PUSH5 0x6970667358 0x22 SLT KECCAK256 CALLER 0xFB PUSH17 0x38E003666252AE177578EEA3E287BF72C3 0xBA MSTORE SWAP12 DUP1 0xB9 0xC9 PUSH16 0xC18A3DD5CC64736F6C63430008090033 "
        },
        "methodIdentifiers": {
          "addCandidates(string[])": "a999e562",
          "candidates(uint256)": "3477ee2e",
          "chairperson()": "2e4176cf",
          "endVote()": "b9223946",
          "giveRightToVote(address)": "9e7b8d61",
          "startVote()": "4c0a6af0",
          "state()": "c19d93fb",
          "vote(uint256)": "0121b93f",
          "voters(address)": "a3ec138d",
          "winningCandidate()": "d28178d7"
        }
      }
    }
  }
}