{
  "_format": "hh-sol-artifact-1",
  "contractName": "Ballot",
  "sourceName": "contracts/Ballot.sol",
  "abi": [
    {
      "inputs": [
        {
          "internalType": "string[]",
          "name": "candidateNames",
          "type": "string[]"
        }
      ],
      "stateMutability": "nonpayable",
      "type": "constructor"
    },
    {
      "inputs": [
        {
          "internalType": "string[]",
          "name": "candidateNames",
          "type": "string[]"
        }
      ],
      "name": "addCandidates",
      "outputs": [],
      "stateMutability": "nonpayable",
      "type": "function"
    },
    {
      "inputs": [
        {
          "internalType": "uint256",
          "name": "",
          "type": "uint256"
        }
      ],
      "name": "candidates",
      "outputs": [
        {
          "internalType": "string",
          "name": "name",
          "type": "string"
        },
        {
          "internalType": "uint256",
          "name": "voteCount",
          "type": "uint256"
        }
      ],
      "stateMutability": "view",
      "type": "function"
    },
    {
      "inputs": [],
      "name": "chairperson",
      "outputs": [
        {
          "internalType": "address",
          "name": "",
          "type": "address"
        }
      ],
      "stateMutability": "view",
      "type": "function"
    },
    {
      "inputs": [],
      "name": "endVote",
      "outputs": [],
      "stateMutability": "nonpayable",
      "type": "function"
    },
    {
      "inputs": [
        {
          "internalType": "address",
          "name": "voter",
          "type": "address"
        }
      ],
      "name": "giveRightToVote",
      "outputs": [],
      "stateMutability": "nonpayable",
      "type": "function"
    },
    {
      "inputs": [],
      "name": "startVote",
      "outputs": [],
      "stateMutability": "nonpayable",
      "type": "function"
    },
    {
      "inputs": [],
      "name": "state",
      "outputs": [
        {
          "internalType": "enum Ballot.State",
          "name": "",
          "type": "uint8"
        }
      ],
      "stateMutability": "view",
      "type": "function"
    },
    {
      "inputs": [
        {
          "internalType": "uint256",
          "name": "candidate",
          "type": "uint256"
        }
      ],
      "name": "vote",
      "outputs": [],
      "stateMutability": "nonpayable",
      "type": "function"
    },
    {
      "inputs": [
        {
          "internalType": "address",
          "name": "",
          "type": "address"
        }
      ],
      "name": "voters",
      "outputs": [
        {
          "internalType": "uint256",
          "name": "weight",
          "type": "uint256"
        },
        {
          "internalType": "bool",
          "name": "voted",
          "type": "bool"
        },
        {
          "internalType": "uint256",
          "name": "vote",
          "type": "uint256"
        }
      ],
      "stateMutability": "view",
      "type": "function"
    },
    {
      "inputs": [],
      "name": "winningCandidate",
      "outputs": [
        {
          "internalType": "string",
          "name": "winnerName_",
          "type": "string"
        }
      ],
      "stateMutability": "view",
      "type": "function"
    }
  ],
  "bytecode": "0x60806040523480156200001157600080fd5b5060405162001dbb38038062001dbb83398181016040528101906200003791906200050a565b336000806101000a81548173ffffffffffffffffffffffffffffffffffffffff021916908373ffffffffffffffffffffffffffffffffffffffff16021790555060018060008060009054906101000a900473ffffffffffffffffffffffffffffffffffffffff1673ffffffffffffffffffffffffffffffffffffffff1673ffffffffffffffffffffffffffffffffffffffff168152602001908152602001600020600001819055506000600360006101000a81548160ff021916908360028111156200010857620001076200055b565b5b021790555060005b8151811015620001b957600260405180604001604052808484815181106200013d576200013c6200058a565b5b6020026020010151815260200160008152509080600181540180825580915050600190039060005260206000209060020201600090919091909150600082015181600001908051906020019062000196929190620001c1565b506020820151816001015550508080620001b090620005f2565b91505062000110565b5050620006a5565b828054620001cf906200066f565b90600052602060002090601f016020900481019282620001f357600085556200023f565b82601f106200020e57805160ff19168380011785556200023f565b828001600101855582156200023f579182015b828111156200023e57825182559160200191906001019062000221565b5b5090506200024e919062000252565b5090565b5b808211156200026d57600081600090555060010162000253565b5090565b6000604051905090565b600080fd5b600080fd5b600080fd5b6000601f19601f8301169050919050565b7f4e487b7100000000000000000000000000000000000000000000000000000000600052604160045260246000fd5b620002d5826200028a565b810181811067ffffffffffffffff82111715620002f757620002f66200029b565b5b80604052505050565b60006200030c62000271565b90506200031a8282620002ca565b919050565b600067ffffffffffffffff8211156200033d576200033c6200029b565b5b602082029050602081019050919050565b600080fd5b600080fd5b600067ffffffffffffffff8211156200037657620003756200029b565b5b62000381826200028a565b9050602081019050919050565b60005b83811015620003ae57808201518184015260208101905062000391565b83811115620003be576000848401525b50505050565b6000620003db620003d58462000358565b62000300565b905082815260208101848484011115620003fa57620003f962000353565b5b620004078482856200038e565b509392505050565b600082601f83011262000427576200042662000285565b5b815162000439848260208601620003c4565b91505092915050565b60006200045962000453846200031f565b62000300565b905080838252602082019050602084028301858111156200047f576200047e6200034e565b5b835b81811015620004cd57805167ffffffffffffffff811115620004a857620004a762000285565b5b808601620004b789826200040f565b8552602085019450505060208101905062000481565b5050509392505050565b600082601f830112620004ef57620004ee62000285565b5b81516200050184826020860162000442565b91505092915050565b6000602082840312156200052357620005226200027b565b5b600082015167ffffffffffffffff81111562000544576200054362000280565b5b6200055284828501620004d7565b91505092915050565b7f4e487b7100000000000000000000000000000000000000000000000000000000600052602160045260246000fd5b7f4e487b7100000000000000000000000000000000000000000000000000000000600052603260045260246000fd5b7f4e487b7100000000000000000000000000000000000000000000000000000000600052601160045260246000fd5b6000819050919050565b6000620005ff82620005e8565b91507fffffffffffffffffffffffffffffffffffffffffffffffffffffffffffffffff821415620006355762000634620005b9565b5b600182019050919050565b7f4e487b7100000000000000000000000000000000000000000000000000000000600052602260045260246000fd5b600060028204905060018216806200068857607f821691505b602082108114156200069f576200069e62000640565b5b50919050565b61170680620006b56000396000f3fe608060405234801561001057600080fd5b506004361061009e5760003560e01c8063a3ec138d11610066578063a3ec138d14610134578063a999e56214610166578063b922394614610182578063c19d93fb1461018c578063d28178d7146101aa5761009e565b80630121b93f146100a35780632e4176cf146100bf5780633477ee2e146100dd5780634c0a6af01461010e5780639e7b8d6114610118575b600080fd5b6100bd60048036038101906100b89190610ca2565b6101c8565b005b6100c7610385565b6040516100d49190610d10565b60405180910390f35b6100f760048036038101906100f29190610ca2565b6103a9565b604051610105929190610dd3565b60405180910390f35b610116610465565b005b610132600480360381019061012d9190610e2f565b610596565b005b61014e60048036038101906101499190610e2f565b61074d565b60405161015d93929190610e77565b60405180910390f35b610180600480360381019061017b91906110c9565b610784565b005b61018a6108cb565b005b6101946109fc565b6040516101a19190611189565b60405180910390f35b6101b2610a0f565b6040516101bf91906111a4565b60405180910390f35b600160028111156101dc576101db611112565b5b600360009054906101000a900460ff1660028111156101fe576101fd611112565b5b1461023e576040517f08c379a000000000000000000000000000000000000000000000000000000000815260040161023590611212565b60405180910390fd5b6000600160003373ffffffffffffffffffffffffffffffffffffffff1673ffffffffffffffffffffffffffffffffffffffff16815260200190815260200160002090506000816000015414156102c9576040517f08c379a00000000000000000000000000000000000000000000000000000000081526004016102c09061127e565b60405180910390fd5b8060010160009054906101000a900460ff161561031b576040517f08c379a0000000000000000000000000000000000000000000000000000000008152600401610312906112ea565b60405180910390fd5b60018160010160006101000a81548160ff02191690831515021790555081816002018190555080600001546002838154811061035a5761035961130a565b5b9060005260206000209060020201600101600082825461037a9190611368565b925050819055505050565b60008054906101000a900473ffffffffffffffffffffffffffffffffffffffff1681565b600281815481106103b957600080fd5b90600052602060002090600202016000915090508060000180546103dc906113ed565b80601f0160208091040260200160405190810160405280929190818152602001828054610408906113ed565b80156104555780601f1061042a57610100808354040283529160200191610455565b820191906000526020600020905b81548152906001019060200180831161043857829003601f168201915b5050505050908060010154905082565b60008054906101000a900473ffffffffffffffffffffffffffffffffffffffff1673ffffffffffffffffffffffffffffffffffffffff163373ffffffffffffffffffffffffffffffffffffffff16146104f3576040517f08c379a00000000000000000000000000000000000000000000000000000000081526004016104ea90611491565b60405180910390fd5b6000600281111561050757610506611112565b5b600360009054906101000a900460ff16600281111561052957610528611112565b5b14610569576040517f08c379a0000000000000000000000000000000000000000000000000000000008152600401610560906114fd565b60405180910390fd5b6001600360006101000a81548160ff0219169083600281111561058f5761058e611112565b5b0217905550565b60008054906101000a900473ffffffffffffffffffffffffffffffffffffffff1673ffffffffffffffffffffffffffffffffffffffff163373ffffffffffffffffffffffffffffffffffffffff1614610624576040517f08c379a000000000000000000000000000000000000000000000000000000000815260040161061b9061158f565b60405180910390fd5b600160008273ffffffffffffffffffffffffffffffffffffffff1673ffffffffffffffffffffffffffffffffffffffff16815260200190815260200160002060010160009054906101000a900460ff16156106b4576040517f08c379a00000000000000000000000000000000000000000000000000000000081526004016106ab906115fb565b60405180910390fd5b6000600160008373ffffffffffffffffffffffffffffffffffffffff1673ffffffffffffffffffffffffffffffffffffffff168152602001908152602001600020600001541461070357600080fd5b60018060008373ffffffffffffffffffffffffffffffffffffffff1673ffffffffffffffffffffffffffffffffffffffff1681526020019081526020016000206000018190555050565b60016020528060005260406000206000915090508060000154908060010160009054906101000a900460ff16908060020154905083565b60028081111561079757610796611112565b5b600360009054906101000a900460ff1660028111156107b9576107b8611112565b5b146107f9576040517f08c379a00000000000000000000000000000000000000000000000000000000081526004016107f090611667565b60405180910390fd5b6000600360006101000a81548160ff0219169083600281111561081f5761081e611112565b5b021790555060005b81518110156108c757600260405180604001604052808484815181106108505761084f61130a565b5b602002602001015181526020016000815250908060018154018082558091505060019003906000526020600020906002020160009091909190915060008201518160000190805190602001906108a7929190610bb5565b5060208201518160010155505080806108bf90611687565b915050610827565b5050565b60008054906101000a900473ffffffffffffffffffffffffffffffffffffffff1673ffffffffffffffffffffffffffffffffffffffff163373ffffffffffffffffffffffffffffffffffffffff1614610959576040517f08c379a000000000000000000000000000000000000000000000000000000000815260040161095090611491565b60405180910390fd5b6001600281111561096d5761096c611112565b5b600360009054906101000a900460ff16600281111561098f5761098e611112565b5b146109cf576040517f08c379a00000000000000000000000000000000000000000000000000000000081526004016109c690611212565b60405180910390fd5b6002600360006101000a81548160ff021916908360028111156109f5576109f4611112565b5b0217905550565b600360009054906101000a900460ff1681565b6060600280811115610a2457610a23611112565b5b600360009054906101000a900460ff166002811115610a4657610a45611112565b5b14610a86576040517f08c379a0000000000000000000000000000000000000000000000000000000008152600401610a7d90611667565b60405180910390fd5b6000805b600280549050811015610bb0578160028281548110610aac57610aab61130a565b5b9060005260206000209060020201600101541115610b9d5760028181548110610ad857610ad761130a565b5b906000526020600020906002020160010154915060028181548110610b0057610aff61130a565b5b90600052602060002090600202016000018054610b1c906113ed565b80601f0160208091040260200160405190810160405280929190818152602001828054610b48906113ed565b8015610b955780601f10610b6a57610100808354040283529160200191610b95565b820191906000526020600020905b815481529060010190602001808311610b7857829003601f168201915b505050505092505b8080610ba890611687565b915050610a8a565b505090565b828054610bc1906113ed565b90600052602060002090601f016020900481019282610be35760008555610c2a565b82601f10610bfc57805160ff1916838001178555610c2a565b82800160010185558215610c2a579182015b82811115610c29578251825591602001919060010190610c0e565b5b509050610c379190610c3b565b5090565b5b80821115610c54576000816000905550600101610c3c565b5090565b6000604051905090565b600080fd5b600080fd5b6000819050919050565b610c7f81610c6c565b8114610c8a57600080fd5b50565b600081359050610c9c81610c76565b92915050565b600060208284031215610cb857610cb7610c62565b5b6000610cc684828501610c8d565b91505092915050565b600073ffffffffffffffffffffffffffffffffffffffff82169050919050565b6000610cfa82610ccf565b9050919050565b610d0a81610cef565b82525050565b6000602082019050610d256000830184610d01565b92915050565b600081519050919050565b600082825260208201905092915050565b60005b83811015610d65578082015181840152602081019050610d4a565b83811115610d74576000848401525b50505050565b6000601f19601f8301169050919050565b6000610d9682610d2b565b610da08185610d36565b9350610db0818560208601610d47565b610db981610d7a565b840191505092915050565b610dcd81610c6c565b82525050565b60006040820190508181036000830152610ded8185610d8b565b9050610dfc6020830184610dc4565b9392505050565b610e0c81610cef565b8114610e1757600080fd5b50565b600081359050610e2981610e03565b92915050565b600060208284031215610e4557610e44610c62565b5b6000610e5384828501610e1a565b91505092915050565b60008115159050919050565b610e7181610e5c565b82525050565b6000606082019050610e8c6000830186610dc4565b610e996020830185610e68565b610ea66040830184610dc4565b949350505050565b600080fd5b7f4e487b7100000000000000000000000000000000000000000000000000000000600052604160045260246000fd5b610eeb82610d7a565b810181811067ffffffffffffffff82111715610f0a57610f09610eb3565b5b80604052505050565b6000610f1d610c58565b9050610f298282610ee2565b919050565b600067ffffffffffffffff821115610f4957610f48610eb3565b5b602082029050602081019050919050565b600080fd5b600080fd5b600067ffffffffffffffff821115610f7f57610f7e610eb3565b5b610f8882610d7a565b9050602081019050919050565b82818337600083830152505050565b6000610fb7610fb284610f64565b610f13565b905082815260208101848484011115610fd357610fd2610f5f565b5b610fde848285610f95565b509392505050565b600082601f830112610ffb57610ffa610eae565b5b813561100b848260208601610fa4565b91505092915050565b600061102761102284610f2e565b610f13565b9050808382526020820190506020840283018581111561104a57611049610f5a565b5b835b8181101561109157803567ffffffffffffffff81111561106f5761106e610eae565b5b80860161107c8982610fe6565b8552602085019450505060208101905061104c565b5050509392505050565b600082601f8301126110b0576110af610eae565b5b81356110c0848260208601611014565b91505092915050565b6000602082840312156110df576110de610c62565b5b600082013567ffffffffffffffff8111156110fd576110fc610c67565b5b6111098482850161109b565b91505092915050565b7f4e487b7100000000000000000000000000000000000000000000000000000000600052602160045260246000fd5b6003811061115257611151611112565b5b50565b600081905061116382611141565b919050565b600061117382611155565b9050919050565b61118381611168565b82525050565b600060208201905061119e600083018461117a565b92915050565b600060208201905081810360008301526111be8184610d8b565b905092915050565b7f6974206d75737420626520696e20566f74696e6720506572696f640000000000600082015250565b60006111fc601b83610d36565b9150611207826111c6565b602082019050919050565b6000602082019050818103600083015261122b816111ef565b9050919050565b7f486173206e6f20726967687420746f20766f7465000000000000000000000000600082015250565b6000611268601483610d36565b915061127382611232565b602082019050919050565b600060208201905081810360008301526112978161125b565b9050919050565b7f416c726561647920766f7465642e000000000000000000000000000000000000600082015250565b60006112d4600e83610d36565b91506112df8261129e565b602082019050919050565b60006020820190508181036000830152611303816112c7565b9050919050565b7f4e487b7100000000000000000000000000000000000000000000000000000000600052603260045260246000fd5b7f4e487b7100000000000000000000000000000000000000000000000000000000600052601160045260246000fd5b600061137382610c6c565b915061137e83610c6c565b9250827fffffffffffffffffffffffffffffffffffffffffffffffffffffffffffffffff038211156113b3576113b2611339565b5b828201905092915050565b7f4e487b7100000000000000000000000000000000000000000000000000000000600052602260045260246000fd5b6000600282049050600182168061140557607f821691505b60208210811415611419576114186113be565b5b50919050565b7f4f6e6c79206368616972706572736f6e2063616e20737461727420616e64206560008201527f6e642074686520766f74696e6700000000000000000000000000000000000000602082015250565b600061147b602d83610d36565b91506114868261141f565b604082019050919050565b600060208201905081810360008301526114aa8161146e565b9050919050565b7f6974206d75737420626520696e20537461727465640000000000000000000000600082015250565b60006114e7601583610d36565b91506114f2826114b1565b602082019050919050565b60006020820190508181036000830152611516816114da565b9050919050565b7f4f6e6c79206368616972706572736f6e2063616e20676976652072696768742060008201527f746f20766f74652e000000000000000000000000000000000000000000000000602082015250565b6000611579602883610d36565b91506115848261151d565b604082019050919050565b600060208201905081810360008301526115a88161156c565b9050919050565b7f54686520766f74657220616c726561647920766f7465642e0000000000000000600082015250565b60006115e5601883610d36565b91506115f0826115af565b602082019050919050565b60006020820190508181036000830152611614816115d8565b9050919050565b7f6974206d75737420626520696e20456e64656420506572696f64000000000000600082015250565b6000611651601a83610d36565b915061165c8261161b565b602082019050919050565b6000602082019050818103600083015261168081611644565b9050919050565b600061169282610c6c565b91507fffffffffffffffffffffffffffffffffffffffffffffffffffffffffffffffff8214156116c5576116c4611339565b5b60018201905091905056fea264697066735822122033fb7038e003666252ae177578eea3e287bf72c3ba529b80b9c96fc18a3dd5cc64736f6c63430008090033",
  "linkReferences": {},
  "deployedLinkReferences": {}
}